{
	"contracts/FundMe.sol": {
		"FundMe": {
			"abi": [
				{
					"inputs": [],
					"stateMutability": "nonpayable",
					"type": "constructor"
				},
				{
					"inputs": [],
					"name": "MINIMUM_USD",
					"outputs": [
						{
							"internalType": "uint256",
							"name": "",
							"type": "uint256"
						}
					],
					"stateMutability": "view",
					"type": "function"
				},
				{
					"inputs": [
						{
							"internalType": "address",
							"name": "",
							"type": "address"
						}
					],
					"name": "addressToAmountFunded",
					"outputs": [
						{
							"internalType": "uint256",
							"name": "",
							"type": "uint256"
						}
					],
					"stateMutability": "view",
					"type": "function"
				},
				{
					"inputs": [],
					"name": "fund",
					"outputs": [],
					"stateMutability": "payable",
					"type": "function"
				},
				{
					"inputs": [
						{
							"internalType": "uint256",
							"name": "",
							"type": "uint256"
						}
					],
					"name": "funders",
					"outputs": [
						{
							"internalType": "address",
							"name": "",
							"type": "address"
						}
					],
					"stateMutability": "view",
					"type": "function"
				},
				{
					"inputs": [],
					"name": "owner",
					"outputs": [
						{
							"internalType": "address",
							"name": "",
							"type": "address"
						}
					],
					"stateMutability": "view",
					"type": "function"
				},
				{
					"inputs": [],
					"name": "withdraw",
					"outputs": [],
					"stateMutability": "payable",
					"type": "function"
				}
			],
			"devdoc": {
				"kind": "dev",
				"methods": {},
				"version": 1
			},
			"evm": {
				"assembly": "    /* \"contracts/FundMe.sol\":92:1613  contract FundMe {... */\n  mstore(0x40, 0x80)\n    /* \"contracts/FundMe.sol\":432:481  constructor() {... */\n  callvalue\n  dup1\n  iszero\n  tag_1\n  jumpi\n  0x00\n  dup1\n  revert\ntag_1:\n  pop\n    /* \"contracts/FundMe.sol\":464:474  msg.sender */\n  caller\n    /* \"contracts/FundMe.sol\":456:461  owner */\n  0x02\n  0x00\n    /* \"contracts/FundMe.sol\":456:474  owner = msg.sender */\n  0x0100\n  exp\n  dup2\n  sload\n  dup2\n  0xffffffffffffffffffffffffffffffffffffffff\n  mul\n  not\n  and\n  swap1\n  dup4\n  0xffffffffffffffffffffffffffffffffffffffff\n  and\n  mul\n  or\n  swap1\n  sstore\n  pop\n    /* \"contracts/FundMe.sol\":92:1613  contract FundMe {... */\n  dataSize(sub_0)\n  dup1\n  dataOffset(sub_0)\n  0x00\n  codecopy\n  0x00\n  return\nstop\n\nsub_0: assembly {\n        /* \"contracts/FundMe.sol\":92:1613  contract FundMe {... */\n      mstore(0x40, 0x80)\n      jumpi(tag_1, lt(calldatasize, 0x04))\n      shr(0xe0, calldataload(0x00))\n      dup1\n      0x3ccfd60b\n      eq\n      tag_2\n      jumpi\n      dup1\n      0x3e47d6f3\n      eq\n      tag_3\n      jumpi\n      dup1\n      0x6b69a592\n      eq\n      tag_4\n      jumpi\n      dup1\n      0x8da5cb5b\n      eq\n      tag_5\n      jumpi\n      dup1\n      0xb60d4288\n      eq\n      tag_6\n      jumpi\n      dup1\n      0xdc0d3dff\n      eq\n      tag_7\n      jumpi\n    tag_1:\n      0x00\n      dup1\n      revert\n        /* \"contracts/FundMe.sol\":947:1610  function withdraw() payable onlyOwner public {... */\n    tag_2:\n      tag_8\n      tag_9\n      jump\t// in\n    tag_8:\n      stop\n        /* \"contracts/FundMe.sol\":153:209  mapping(address => uint256) public addressToAmountFunded */\n    tag_3:\n      callvalue\n      dup1\n      iszero\n      tag_10\n      jumpi\n      0x00\n      dup1\n      revert\n    tag_10:\n      pop\n      tag_11\n      0x04\n      dup1\n      calldatasize\n      sub\n      dup2\n      add\n      swap1\n      tag_12\n      swap2\n      swap1\n      tag_13\n      jump\t// in\n    tag_12:\n      tag_14\n      jump\t// in\n    tag_11:\n      mload(0x40)\n      tag_15\n      swap2\n      swap1\n      tag_16\n      jump\t// in\n    tag_15:\n      mload(0x40)\n      dup1\n      swap2\n      sub\n      swap1\n      return\n        /* \"contracts/FundMe.sol\":370:421  uint256 public constant MINIMUM_USD = 50 * 10 ** 18 */\n    tag_4:\n      callvalue\n      dup1\n      iszero\n      tag_17\n      jumpi\n      0x00\n      dup1\n      revert\n    tag_17:\n      pop\n      tag_18\n      tag_19\n      jump\t// in\n    tag_18:\n      mload(0x40)\n      tag_20\n      swap2\n      swap1\n      tag_16\n      jump\t// in\n    tag_20:\n      mload(0x40)\n      dup1\n      swap2\n      sub\n      swap1\n      return\n        /* \"contracts/FundMe.sol\":328:364  address public /* immutable */ owner */\n    tag_5:\n      callvalue\n      dup1\n      iszero\n      tag_21\n      jumpi\n      0x00\n      dup1\n      revert\n    tag_21:\n      pop\n      tag_22\n      tag_23\n      jump\t// in\n    tag_22:\n      mload(0x40)\n      tag_24\n      swap2\n      swap1\n      tag_25\n      jump\t// in\n    tag_24:\n      mload(0x40)\n      dup1\n      swap2\n      sub\n      swap1\n      return\n        /* \"contracts/FundMe.sol\":487:820  function fund() public payable {... */\n    tag_6:\n      tag_26\n      tag_27\n      jump\t// in\n    tag_26:\n      stop\n        /* \"contracts/FundMe.sol\":215:239  address[] public funders */\n    tag_7:\n      callvalue\n      dup1\n      iszero\n      tag_28\n      jumpi\n      0x00\n      dup1\n      revert\n    tag_28:\n      pop\n      tag_29\n      0x04\n      dup1\n      calldatasize\n      sub\n      dup2\n      add\n      swap1\n      tag_30\n      swap2\n      swap1\n      tag_31\n      jump\t// in\n    tag_30:\n      tag_32\n      jump\t// in\n    tag_29:\n      mload(0x40)\n      tag_33\n      swap2\n      swap1\n      tag_25\n      jump\t// in\n    tag_33:\n      mload(0x40)\n      dup1\n      swap2\n      sub\n      swap1\n      return\n        /* \"contracts/FundMe.sol\":947:1610  function withdraw() payable onlyOwner public {... */\n    tag_9:\n        /* \"contracts/FundMe.sol\":886:891  owner */\n      0x02\n      0x00\n      swap1\n      sload\n      swap1\n      0x0100\n      exp\n      swap1\n      div\n      0xffffffffffffffffffffffffffffffffffffffff\n      and\n        /* \"contracts/FundMe.sol\":872:891  msg.sender == owner */\n      0xffffffffffffffffffffffffffffffffffffffff\n      and\n        /* \"contracts/FundMe.sol\":872:882  msg.sender */\n      caller\n        /* \"contracts/FundMe.sol\":872:891  msg.sender == owner */\n      0xffffffffffffffffffffffffffffffffffffffff\n      and\n      eq\n        /* \"contracts/FundMe.sol\":864:919  require(msg.sender == owner, \"Sender is not the Owner\") */\n      tag_35\n      jumpi\n      mload(0x40)\n      0x08c379a000000000000000000000000000000000000000000000000000000000\n      dup2\n      mstore\n      0x04\n      add\n      tag_36\n      swap1\n      tag_37\n      jump\t// in\n    tag_36:\n      mload(0x40)\n      dup1\n      swap2\n      sub\n      swap1\n      revert\n    tag_35:\n        /* \"contracts/FundMe.sol\":1007:1026  uint256 funderIndex */\n      0x00\n        /* \"contracts/FundMe.sol\":1002:1183  for (uint256 funderIndex=0; funderIndex < funders.length; funderIndex++){... */\n    tag_39:\n        /* \"contracts/FundMe.sol\":1044:1051  funders */\n      0x01\n        /* \"contracts/FundMe.sol\":1044:1058  funders.length */\n      dup1\n      sload\n      swap1\n      pop\n        /* \"contracts/FundMe.sol\":1030:1041  funderIndex */\n      dup2\n        /* \"contracts/FundMe.sol\":1030:1058  funderIndex < funders.length */\n      lt\n        /* \"contracts/FundMe.sol\":1002:1183  for (uint256 funderIndex=0; funderIndex < funders.length; funderIndex++){... */\n      iszero\n      tag_40\n      jumpi\n        /* \"contracts/FundMe.sol\":1088:1102  address funder */\n      0x00\n        /* \"contracts/FundMe.sol\":1105:1112  funders */\n      0x01\n        /* \"contracts/FundMe.sol\":1113:1124  funderIndex */\n      dup3\n        /* \"contracts/FundMe.sol\":1105:1125  funders[funderIndex] */\n      dup2\n      sload\n      dup2\n      lt\n      tag_42\n      jumpi\n      tag_43\n      tag_44\n      jump\t// in\n    tag_43:\n    tag_42:\n      swap1\n      0x00\n      mstore\n      keccak256(0x00, 0x20)\n      add\n      0x00\n      swap1\n      sload\n      swap1\n      0x0100\n      exp\n      swap1\n      div\n      0xffffffffffffffffffffffffffffffffffffffff\n      and\n        /* \"contracts/FundMe.sol\":1088:1125  address funder = funders[funderIndex] */\n      swap1\n      pop\n        /* \"contracts/FundMe.sol\":1171:1172  0 */\n      0x00\n        /* \"contracts/FundMe.sol\":1139:1160  addressToAmountFunded */\n      dup1\n        /* \"contracts/FundMe.sol\":1139:1168  addressToAmountFunded[funder] */\n      0x00\n        /* \"contracts/FundMe.sol\":1161:1167  funder */\n      dup4\n        /* \"contracts/FundMe.sol\":1139:1168  addressToAmountFunded[funder] */\n      0xffffffffffffffffffffffffffffffffffffffff\n      and\n      0xffffffffffffffffffffffffffffffffffffffff\n      and\n      dup2\n      mstore\n      0x20\n      add\n      swap1\n      dup2\n      mstore\n      0x20\n      add\n      0x00\n      keccak256\n        /* \"contracts/FundMe.sol\":1139:1172  addressToAmountFunded[funder] = 0 */\n      dup2\n      swap1\n      sstore\n      pop\n        /* \"contracts/FundMe.sol\":1074:1183  {... */\n      pop\n        /* \"contracts/FundMe.sol\":1060:1073  funderIndex++ */\n      dup1\n      dup1\n      tag_46\n      swap1\n      tag_47\n      jump\t// in\n    tag_46:\n      swap2\n      pop\n      pop\n        /* \"contracts/FundMe.sol\":1002:1183  for (uint256 funderIndex=0; funderIndex < funders.length; funderIndex++){... */\n      jump(tag_39)\n    tag_40:\n      pop\n        /* \"contracts/FundMe.sol\":1216:1217  0 */\n      0x00\n        /* \"contracts/FundMe.sol\":1202:1218  new address[](0) */\n      0xffffffffffffffff\n      dup2\n      gt\n      iszero\n      tag_48\n      jumpi\n      tag_49\n      tag_50\n      jump\t// in\n    tag_49:\n    tag_48:\n      mload(0x40)\n      swap1\n      dup1\n      dup3\n      mstore\n      dup1\n      0x20\n      mul\n      0x20\n      add\n      dup3\n      add\n      0x40\n      mstore\n      dup1\n      iszero\n      tag_51\n      jumpi\n      dup2\n      0x20\n      add\n      0x20\n      dup3\n      mul\n      dup1\n      calldatasize\n      dup4\n      calldatacopy\n      dup1\n      dup3\n      add\n      swap2\n      pop\n      pop\n      swap1\n      pop\n    tag_51:\n      pop\n        /* \"contracts/FundMe.sol\":1192:1199  funders */\n      0x01\n        /* \"contracts/FundMe.sol\":1192:1218  funders = new address[](0) */\n      swap1\n      dup1\n      mload\n      swap1\n      0x20\n      add\n      swap1\n      tag_52\n      swap3\n      swap2\n      swap1\n      tag_53\n      jump\t// in\n    tag_52:\n      pop\n        /* \"contracts/FundMe.sol\":1478:1494  bool callSuccess */\n      0x00\n        /* \"contracts/FundMe.sol\":1508:1518  msg.sender */\n      caller\n        /* \"contracts/FundMe.sol\":1500:1524  payable(msg.sender).call */\n      0xffffffffffffffffffffffffffffffffffffffff\n      and\n        /* \"contracts/FundMe.sol\":1532:1553  address(this).balance */\n      selfbalance\n        /* \"contracts/FundMe.sol\":1500:1558  payable(msg.sender).call{value: address(this).balance}(\"\") */\n      mload(0x40)\n      tag_54\n      swap1\n      tag_55\n      jump\t// in\n    tag_54:\n      0x00\n      mload(0x40)\n      dup1\n      dup4\n      sub\n      dup2\n      dup6\n      dup8\n      gas\n      call\n      swap3\n      pop\n      pop\n      pop\n      returndatasize\n      dup1\n      0x00\n      dup2\n      eq\n      tag_58\n      jumpi\n      mload(0x40)\n      swap2\n      pop\n      and(add(returndatasize, 0x3f), not(0x1f))\n      dup3\n      add\n      0x40\n      mstore\n      returndatasize\n      dup3\n      mstore\n      returndatasize\n      0x00\n      0x20\n      dup5\n      add\n      returndatacopy\n      jump(tag_57)\n    tag_58:\n      0x60\n      swap2\n      pop\n    tag_57:\n      pop\n        /* \"contracts/FundMe.sol\":1477:1558  (bool callSuccess, ) = payable(msg.sender).call{value: address(this).balance}(\"\") */\n      pop\n      swap1\n      pop\n        /* \"contracts/FundMe.sol\":1576:1587  callSuccess */\n      dup1\n        /* \"contracts/FundMe.sol\":1568:1603  require(callSuccess, \"Call failed\") */\n      tag_59\n      jumpi\n      mload(0x40)\n      0x08c379a000000000000000000000000000000000000000000000000000000000\n      dup2\n      mstore\n      0x04\n      add\n      tag_60\n      swap1\n      tag_61\n      jump\t// in\n    tag_60:\n      mload(0x40)\n      dup1\n      swap2\n      sub\n      swap1\n      revert\n    tag_59:\n        /* \"contracts/FundMe.sol\":992:1610  {... */\n      pop\n        /* \"contracts/FundMe.sol\":947:1610  function withdraw() payable onlyOwner public {... */\n      jump\t// out\n        /* \"contracts/FundMe.sol\":153:209  mapping(address => uint256) public addressToAmountFunded */\n    tag_14:\n      mstore(0x20, 0x00)\n      dup1\n      0x00\n      mstore\n      keccak256(0x00, 0x40)\n      0x00\n      swap2\n      pop\n      swap1\n      pop\n      sload\n      dup2\n      jump\t// out\n        /* \"contracts/FundMe.sol\":370:421  uint256 public constant MINIMUM_USD = 50 * 10 ** 18 */\n    tag_19:\n        /* \"contracts/FundMe.sol\":408:421  50 * 10 ** 18 */\n      0x02b5e3af16b1880000\n        /* \"contracts/FundMe.sol\":370:421  uint256 public constant MINIMUM_USD = 50 * 10 ** 18 */\n      dup2\n      jump\t// out\n        /* \"contracts/FundMe.sol\":328:364  address public /* immutable */ owner */\n    tag_23:\n      0x02\n      0x00\n      swap1\n      sload\n      swap1\n      0x0100\n      exp\n      swap1\n      div\n      0xffffffffffffffffffffffffffffffffffffffff\n      and\n      dup2\n      jump\t// out\n        /* \"contracts/FundMe.sol\":487:820  function fund() public payable {... */\n    tag_27:\n        /* \"contracts/FundMe.sol\":408:421  50 * 10 ** 18 */\n      0x02b5e3af16b1880000\n        /* \"contracts/FundMe.sol\":536:565  msg.value.getConversionRate() */\n      tag_63\n        /* \"contracts/FundMe.sol\":536:545  msg.value */\n      callvalue\n        /* \"contracts/FundMe.sol\":536:563  msg.value.getConversionRate */\n      tag_64\n        /* \"contracts/FundMe.sol\":536:565  msg.value.getConversionRate() */\n      jump\t// in\n    tag_63:\n        /* \"contracts/FundMe.sol\":536:580  msg.value.getConversionRate() >= MINIMUM_USD */\n      lt\n      iszero\n        /* \"contracts/FundMe.sol\":528:612  require(msg.value.getConversionRate() >= MINIMUM_USD, \"You need to spend more ETH!\") */\n      tag_65\n      jumpi\n      mload(0x40)\n      0x08c379a000000000000000000000000000000000000000000000000000000000\n      dup2\n      mstore\n      0x04\n      add\n      tag_66\n      swap1\n      tag_67\n      jump\t// in\n    tag_66:\n      mload(0x40)\n      dup1\n      swap2\n      sub\n      swap1\n      revert\n    tag_65:\n        /* \"contracts/FundMe.sol\":770:779  msg.value */\n      callvalue\n        /* \"contracts/FundMe.sol\":733:754  addressToAmountFunded */\n      0x00\n        /* \"contracts/FundMe.sol\":733:766  addressToAmountFunded[msg.sender] */\n      dup1\n        /* \"contracts/FundMe.sol\":755:765  msg.sender */\n      caller\n        /* \"contracts/FundMe.sol\":733:766  addressToAmountFunded[msg.sender] */\n      0xffffffffffffffffffffffffffffffffffffffff\n      and\n      0xffffffffffffffffffffffffffffffffffffffff\n      and\n      dup2\n      mstore\n      0x20\n      add\n      swap1\n      dup2\n      mstore\n      0x20\n      add\n      0x00\n      keccak256\n      0x00\n        /* \"contracts/FundMe.sol\":733:779  addressToAmountFunded[msg.sender] += msg.value */\n      dup3\n      dup3\n      sload\n      tag_68\n      swap2\n      swap1\n      tag_69\n      jump\t// in\n    tag_68:\n      swap3\n      pop\n      pop\n      dup2\n      swap1\n      sstore\n      pop\n        /* \"contracts/FundMe.sol\":789:796  funders */\n      0x01\n        /* \"contracts/FundMe.sol\":802:812  msg.sender */\n      caller\n        /* \"contracts/FundMe.sol\":789:813  funders.push(msg.sender) */\n      swap1\n      dup1\n      0x01\n      dup2\n      sload\n      add\n      dup1\n      dup3\n      sstore\n      dup1\n      swap2\n      pop\n      pop\n      0x01\n      swap1\n      sub\n      swap1\n      0x00\n      mstore\n      keccak256(0x00, 0x20)\n      add\n      0x00\n      swap1\n      swap2\n      swap1\n      swap2\n      swap1\n      swap2\n      0x0100\n      exp\n      dup2\n      sload\n      dup2\n      0xffffffffffffffffffffffffffffffffffffffff\n      mul\n      not\n      and\n      swap1\n      dup4\n      0xffffffffffffffffffffffffffffffffffffffff\n      and\n      mul\n      or\n      swap1\n      sstore\n      pop\n        /* \"contracts/FundMe.sol\":487:820  function fund() public payable {... */\n      jump\t// out\n        /* \"contracts/FundMe.sol\":215:239  address[] public funders */\n    tag_32:\n      0x01\n      dup2\n      dup2\n      sload\n      dup2\n      lt\n      tag_71\n      jumpi\n      0x00\n      dup1\n      revert\n    tag_71:\n      swap1\n      0x00\n      mstore\n      keccak256(0x00, 0x20)\n      add\n      0x00\n      swap2\n      pop\n      sload\n      swap1\n      0x0100\n      exp\n      swap1\n      div\n      0xffffffffffffffffffffffffffffffffffffffff\n      and\n      dup2\n      jump\t// out\n        /* \"contracts/PriceConverter.sol\":754:1095  function getConversionRate(uint256 ethAmount)... */\n    tag_64:\n        /* \"contracts/PriceConverter.sol\":847:854  uint256 */\n      0x00\n        /* \"contracts/PriceConverter.sol\":870:886  uint256 ethPrice */\n      dup1\n        /* \"contracts/PriceConverter.sol\":889:899  getPrice() */\n      tag_74\n        /* \"contracts/PriceConverter.sol\":889:897  getPrice */\n      tag_75\n        /* \"contracts/PriceConverter.sol\":889:899  getPrice() */\n      jump\t// in\n    tag_74:\n        /* \"contracts/PriceConverter.sol\":870:899  uint256 ethPrice = getPrice() */\n      swap1\n      pop\n        /* \"contracts/PriceConverter.sol\":909:931  uint256 ethAmountInUsd */\n      0x00\n        /* \"contracts/PriceConverter.sol\":959:978  1000000000000000000 */\n      0x0de0b6b3a7640000\n        /* \"contracts/PriceConverter.sol\":946:955  ethAmount */\n      dup5\n        /* \"contracts/PriceConverter.sol\":935:943  ethPrice */\n      dup4\n        /* \"contracts/PriceConverter.sol\":935:955  ethPrice * ethAmount */\n      tag_76\n      swap2\n      swap1\n      tag_77\n      jump\t// in\n    tag_76:\n        /* \"contracts/PriceConverter.sol\":934:978  (ethPrice * ethAmount) / 1000000000000000000 */\n      tag_78\n      swap2\n      swap1\n      tag_79\n      jump\t// in\n    tag_78:\n        /* \"contracts/PriceConverter.sol\":909:978  uint256 ethAmountInUsd = (ethPrice * ethAmount) / 1000000000000000000 */\n      swap1\n      pop\n        /* \"contracts/PriceConverter.sol\":1074:1088  ethAmountInUsd */\n      dup1\n        /* \"contracts/PriceConverter.sol\":1067:1088  return ethAmountInUsd */\n      swap3\n      pop\n      pop\n      pop\n        /* \"contracts/PriceConverter.sol\":754:1095  function getConversionRate(uint256 ethAmount)... */\n      swap2\n      swap1\n      pop\n      jump\t// out\n        /* \"contracts/PriceConverter.sol\":298:730  function getPrice() internal view returns (uint256) {... */\n    tag_75:\n        /* \"contracts/PriceConverter.sol\":341:348  uint256 */\n      0x00\n        /* \"contracts/PriceConverter.sol\":457:488  AggregatorV3Interface priceFeed */\n      dup1\n        /* \"contracts/PriceConverter.sol\":526:568  0x8A753747A1Fa494EC906cE90E9f37563A8AF630e */\n      0x8a753747a1fa494ec906ce90e9f37563a8af630e\n        /* \"contracts/PriceConverter.sol\":457:578  AggregatorV3Interface priceFeed = AggregatorV3Interface(... */\n      swap1\n      pop\n        /* \"contracts/PriceConverter.sol\":591:604  int256 answer */\n      0x00\n        /* \"contracts/PriceConverter.sol\":614:623  priceFeed */\n      dup2\n        /* \"contracts/PriceConverter.sol\":614:639  priceFeed.latestRoundData */\n      0xffffffffffffffffffffffffffffffffffffffff\n      and\n      0xfeaf968c\n        /* \"contracts/PriceConverter.sol\":614:641  priceFeed.latestRoundData() */\n      mload(0x40)\n      dup2\n      0xffffffff\n      and\n      0xe0\n      shl\n      dup2\n      mstore\n      0x04\n      add\n      0xa0\n      mload(0x40)\n      dup1\n      dup4\n      sub\n      dup2\n      dup7\n      dup1\n      extcodesize\n      iszero\n      dup1\n      iszero\n      tag_81\n      jumpi\n      0x00\n      dup1\n      revert\n    tag_81:\n      pop\n      gas\n      staticcall\n      iszero\n      dup1\n      iszero\n      tag_83\n      jumpi\n      returndatasize\n      0x00\n      dup1\n      returndatacopy\n      revert(0x00, returndatasize)\n    tag_83:\n      pop\n      pop\n      pop\n      pop\n      mload(0x40)\n      returndatasize\n      not(0x1f)\n      0x1f\n      dup3\n      add\n      and\n      dup3\n      add\n      dup1\n      0x40\n      mstore\n      pop\n      dup2\n      add\n      swap1\n      tag_84\n      swap2\n      swap1\n      tag_85\n      jump\t// in\n    tag_84:\n        /* \"contracts/PriceConverter.sol\":588:641  (, int256 answer, , , ) = priceFeed.latestRoundData() */\n      pop\n      pop\n      pop\n      swap2\n      pop\n      pop\n        /* \"contracts/PriceConverter.sol\":711:722  10000000000 */\n      0x02540be400\n        /* \"contracts/PriceConverter.sol\":702:708  answer */\n      dup2\n        /* \"contracts/PriceConverter.sol\":702:722  answer * 10000000000 */\n      tag_86\n      swap2\n      swap1\n      tag_87\n      jump\t// in\n    tag_86:\n        /* \"contracts/PriceConverter.sol\":687:723  return uint256(answer * 10000000000) */\n      swap3\n      pop\n      pop\n      pop\n        /* \"contracts/PriceConverter.sol\":298:730  function getPrice() internal view returns (uint256) {... */\n      swap1\n      jump\t// out\n    tag_53:\n      dup3\n      dup1\n      sload\n      dup3\n      dup3\n      sstore\n      swap1\n      0x00\n      mstore\n      keccak256(0x00, 0x20)\n      swap1\n      dup2\n      add\n      swap3\n      dup3\n      iszero\n      tag_88\n      jumpi\n      swap2\n      0x20\n      mul\n      dup3\n      add\n    tag_89:\n      dup3\n      dup2\n      gt\n      iszero\n      tag_90\n      jumpi\n      dup3\n      mload\n      dup3\n      exp(0x0100, 0x00)\n      dup2\n      sload\n      dup2\n      0xffffffffffffffffffffffffffffffffffffffff\n      mul\n      not\n      and\n      swap1\n      dup4\n      0xffffffffffffffffffffffffffffffffffffffff\n      and\n      mul\n      or\n      swap1\n      sstore\n      pop\n      swap2\n      0x20\n      add\n      swap2\n      swap1\n      0x01\n      add\n      swap1\n      jump(tag_89)\n    tag_90:\n    tag_88:\n      pop\n      swap1\n      pop\n      tag_91\n      swap2\n      swap1\n      tag_92\n      jump\t// in\n    tag_91:\n      pop\n      swap1\n      jump\t// out\n    tag_92:\n    tag_93:\n      dup1\n      dup3\n      gt\n      iszero\n      tag_94\n      jumpi\n      0x00\n      dup2\n      0x00\n      swap1\n      sstore\n      pop\n      0x01\n      add\n      jump(tag_93)\n    tag_94:\n      pop\n      swap1\n      jump\t// out\n        /* \"#utility.yul\":88:205   */\n    tag_96:\n        /* \"#utility.yul\":197:198   */\n      0x00\n        /* \"#utility.yul\":194:195   */\n      dup1\n        /* \"#utility.yul\":187:199   */\n      revert\n        /* \"#utility.yul\":334:460   */\n    tag_98:\n        /* \"#utility.yul\":371:378   */\n      0x00\n        /* \"#utility.yul\":411:453   */\n      0xffffffffffffffffffffffffffffffffffffffff\n        /* \"#utility.yul\":404:409   */\n      dup3\n        /* \"#utility.yul\":400:454   */\n      and\n        /* \"#utility.yul\":389:454   */\n      swap1\n      pop\n        /* \"#utility.yul\":334:460   */\n      swap2\n      swap1\n      pop\n      jump\t// out\n        /* \"#utility.yul\":466:562   */\n    tag_99:\n        /* \"#utility.yul\":503:510   */\n      0x00\n        /* \"#utility.yul\":532:556   */\n      tag_132\n        /* \"#utility.yul\":550:555   */\n      dup3\n        /* \"#utility.yul\":532:556   */\n      tag_98\n      jump\t// in\n    tag_132:\n        /* \"#utility.yul\":521:556   */\n      swap1\n      pop\n        /* \"#utility.yul\":466:562   */\n      swap2\n      swap1\n      pop\n      jump\t// out\n        /* \"#utility.yul\":568:690   */\n    tag_100:\n        /* \"#utility.yul\":641:665   */\n      tag_134\n        /* \"#utility.yul\":659:664   */\n      dup2\n        /* \"#utility.yul\":641:665   */\n      tag_99\n      jump\t// in\n    tag_134:\n        /* \"#utility.yul\":634:639   */\n      dup2\n        /* \"#utility.yul\":631:666   */\n      eq\n        /* \"#utility.yul\":621:684   */\n      tag_135\n      jumpi\n        /* \"#utility.yul\":680:681   */\n      0x00\n        /* \"#utility.yul\":677:678   */\n      dup1\n        /* \"#utility.yul\":670:682   */\n      revert\n        /* \"#utility.yul\":621:684   */\n    tag_135:\n        /* \"#utility.yul\":568:690   */\n      pop\n      jump\t// out\n        /* \"#utility.yul\":696:835   */\n    tag_101:\n        /* \"#utility.yul\":742:747   */\n      0x00\n        /* \"#utility.yul\":780:786   */\n      dup2\n        /* \"#utility.yul\":767:787   */\n      calldataload\n        /* \"#utility.yul\":758:787   */\n      swap1\n      pop\n        /* \"#utility.yul\":796:829   */\n      tag_137\n        /* \"#utility.yul\":823:828   */\n      dup2\n        /* \"#utility.yul\":796:829   */\n      tag_100\n      jump\t// in\n    tag_137:\n        /* \"#utility.yul\":696:835   */\n      swap3\n      swap2\n      pop\n      pop\n      jump\t// out\n        /* \"#utility.yul\":841:1170   */\n    tag_13:\n        /* \"#utility.yul\":900:906   */\n      0x00\n        /* \"#utility.yul\":949:951   */\n      0x20\n        /* \"#utility.yul\":937:946   */\n      dup3\n        /* \"#utility.yul\":928:935   */\n      dup5\n        /* \"#utility.yul\":924:947   */\n      sub\n        /* \"#utility.yul\":920:952   */\n      slt\n        /* \"#utility.yul\":917:1036   */\n      iszero\n      tag_139\n      jumpi\n        /* \"#utility.yul\":955:1034   */\n      tag_140\n      tag_96\n      jump\t// in\n    tag_140:\n        /* \"#utility.yul\":917:1036   */\n    tag_139:\n        /* \"#utility.yul\":1075:1076   */\n      0x00\n        /* \"#utility.yul\":1100:1153   */\n      tag_141\n        /* \"#utility.yul\":1145:1152   */\n      dup5\n        /* \"#utility.yul\":1136:1142   */\n      dup3\n        /* \"#utility.yul\":1125:1134   */\n      dup6\n        /* \"#utility.yul\":1121:1143   */\n      add\n        /* \"#utility.yul\":1100:1153   */\n      tag_101\n      jump\t// in\n    tag_141:\n        /* \"#utility.yul\":1090:1153   */\n      swap2\n      pop\n        /* \"#utility.yul\":1046:1163   */\n      pop\n        /* \"#utility.yul\":841:1170   */\n      swap3\n      swap2\n      pop\n      pop\n      jump\t// out\n        /* \"#utility.yul\":1176:1253   */\n    tag_102:\n        /* \"#utility.yul\":1213:1220   */\n      0x00\n        /* \"#utility.yul\":1242:1247   */\n      dup2\n        /* \"#utility.yul\":1231:1247   */\n      swap1\n      pop\n        /* \"#utility.yul\":1176:1253   */\n      swap2\n      swap1\n      pop\n      jump\t// out\n        /* \"#utility.yul\":1259:1377   */\n    tag_103:\n        /* \"#utility.yul\":1346:1370   */\n      tag_144\n        /* \"#utility.yul\":1364:1369   */\n      dup2\n        /* \"#utility.yul\":1346:1370   */\n      tag_102\n      jump\t// in\n    tag_144:\n        /* \"#utility.yul\":1341:1344   */\n      dup3\n        /* \"#utility.yul\":1334:1371   */\n      mstore\n        /* \"#utility.yul\":1259:1377   */\n      pop\n      pop\n      jump\t// out\n        /* \"#utility.yul\":1383:1605   */\n    tag_16:\n        /* \"#utility.yul\":1476:1480   */\n      0x00\n        /* \"#utility.yul\":1514:1516   */\n      0x20\n        /* \"#utility.yul\":1503:1512   */\n      dup3\n        /* \"#utility.yul\":1499:1517   */\n      add\n        /* \"#utility.yul\":1491:1517   */\n      swap1\n      pop\n        /* \"#utility.yul\":1527:1598   */\n      tag_146\n        /* \"#utility.yul\":1595:1596   */\n      0x00\n        /* \"#utility.yul\":1584:1593   */\n      dup4\n        /* \"#utility.yul\":1580:1597   */\n      add\n        /* \"#utility.yul\":1571:1577   */\n      dup5\n        /* \"#utility.yul\":1527:1598   */\n      tag_103\n      jump\t// in\n    tag_146:\n        /* \"#utility.yul\":1383:1605   */\n      swap3\n      swap2\n      pop\n      pop\n      jump\t// out\n        /* \"#utility.yul\":1611:1729   */\n    tag_104:\n        /* \"#utility.yul\":1698:1722   */\n      tag_148\n        /* \"#utility.yul\":1716:1721   */\n      dup2\n        /* \"#utility.yul\":1698:1722   */\n      tag_99\n      jump\t// in\n    tag_148:\n        /* \"#utility.yul\":1693:1696   */\n      dup3\n        /* \"#utility.yul\":1686:1723   */\n      mstore\n        /* \"#utility.yul\":1611:1729   */\n      pop\n      pop\n      jump\t// out\n        /* \"#utility.yul\":1735:1957   */\n    tag_25:\n        /* \"#utility.yul\":1828:1832   */\n      0x00\n        /* \"#utility.yul\":1866:1868   */\n      0x20\n        /* \"#utility.yul\":1855:1864   */\n      dup3\n        /* \"#utility.yul\":1851:1869   */\n      add\n        /* \"#utility.yul\":1843:1869   */\n      swap1\n      pop\n        /* \"#utility.yul\":1879:1950   */\n      tag_150\n        /* \"#utility.yul\":1947:1948   */\n      0x00\n        /* \"#utility.yul\":1936:1945   */\n      dup4\n        /* \"#utility.yul\":1932:1949   */\n      add\n        /* \"#utility.yul\":1923:1929   */\n      dup5\n        /* \"#utility.yul\":1879:1950   */\n      tag_104\n      jump\t// in\n    tag_150:\n        /* \"#utility.yul\":1735:1957   */\n      swap3\n      swap2\n      pop\n      pop\n      jump\t// out\n        /* \"#utility.yul\":1963:2085   */\n    tag_105:\n        /* \"#utility.yul\":2036:2060   */\n      tag_152\n        /* \"#utility.yul\":2054:2059   */\n      dup2\n        /* \"#utility.yul\":2036:2060   */\n      tag_102\n      jump\t// in\n    tag_152:\n        /* \"#utility.yul\":2029:2034   */\n      dup2\n        /* \"#utility.yul\":2026:2061   */\n      eq\n        /* \"#utility.yul\":2016:2079   */\n      tag_153\n      jumpi\n        /* \"#utility.yul\":2075:2076   */\n      0x00\n        /* \"#utility.yul\":2072:2073   */\n      dup1\n        /* \"#utility.yul\":2065:2077   */\n      revert\n        /* \"#utility.yul\":2016:2079   */\n    tag_153:\n        /* \"#utility.yul\":1963:2085   */\n      pop\n      jump\t// out\n        /* \"#utility.yul\":2091:2230   */\n    tag_106:\n        /* \"#utility.yul\":2137:2142   */\n      0x00\n        /* \"#utility.yul\":2175:2181   */\n      dup2\n        /* \"#utility.yul\":2162:2182   */\n      calldataload\n        /* \"#utility.yul\":2153:2182   */\n      swap1\n      pop\n        /* \"#utility.yul\":2191:2224   */\n      tag_155\n        /* \"#utility.yul\":2218:2223   */\n      dup2\n        /* \"#utility.yul\":2191:2224   */\n      tag_105\n      jump\t// in\n    tag_155:\n        /* \"#utility.yul\":2091:2230   */\n      swap3\n      swap2\n      pop\n      pop\n      jump\t// out\n        /* \"#utility.yul\":2236:2565   */\n    tag_31:\n        /* \"#utility.yul\":2295:2301   */\n      0x00\n        /* \"#utility.yul\":2344:2346   */\n      0x20\n        /* \"#utility.yul\":2332:2341   */\n      dup3\n        /* \"#utility.yul\":2323:2330   */\n      dup5\n        /* \"#utility.yul\":2319:2342   */\n      sub\n        /* \"#utility.yul\":2315:2347   */\n      slt\n        /* \"#utility.yul\":2312:2431   */\n      iszero\n      tag_157\n      jumpi\n        /* \"#utility.yul\":2350:2429   */\n      tag_158\n      tag_96\n      jump\t// in\n    tag_158:\n        /* \"#utility.yul\":2312:2431   */\n    tag_157:\n        /* \"#utility.yul\":2470:2471   */\n      0x00\n        /* \"#utility.yul\":2495:2548   */\n      tag_159\n        /* \"#utility.yul\":2540:2547   */\n      dup5\n        /* \"#utility.yul\":2531:2537   */\n      dup3\n        /* \"#utility.yul\":2520:2529   */\n      dup6\n        /* \"#utility.yul\":2516:2538   */\n      add\n        /* \"#utility.yul\":2495:2548   */\n      tag_106\n      jump\t// in\n    tag_159:\n        /* \"#utility.yul\":2485:2548   */\n      swap2\n      pop\n        /* \"#utility.yul\":2441:2558   */\n      pop\n        /* \"#utility.yul\":2236:2565   */\n      swap3\n      swap2\n      pop\n      pop\n      jump\t// out\n        /* \"#utility.yul\":2571:2740   */\n    tag_107:\n        /* \"#utility.yul\":2655:2666   */\n      0x00\n        /* \"#utility.yul\":2689:2695   */\n      dup3\n        /* \"#utility.yul\":2684:2687   */\n      dup3\n        /* \"#utility.yul\":2677:2696   */\n      mstore\n        /* \"#utility.yul\":2729:2733   */\n      0x20\n        /* \"#utility.yul\":2724:2727   */\n      dup3\n        /* \"#utility.yul\":2720:2734   */\n      add\n        /* \"#utility.yul\":2705:2734   */\n      swap1\n      pop\n        /* \"#utility.yul\":2571:2740   */\n      swap3\n      swap2\n      pop\n      pop\n      jump\t// out\n        /* \"#utility.yul\":2746:2919   */\n    tag_108:\n        /* \"#utility.yul\":2886:2911   */\n      0x53656e646572206973206e6f7420746865204f776e6572000000000000000000\n        /* \"#utility.yul\":2882:2883   */\n      0x00\n        /* \"#utility.yul\":2874:2880   */\n      dup3\n        /* \"#utility.yul\":2870:2884   */\n      add\n        /* \"#utility.yul\":2863:2912   */\n      mstore\n        /* \"#utility.yul\":2746:2919   */\n      pop\n      jump\t// out\n        /* \"#utility.yul\":2925:3291   */\n    tag_109:\n        /* \"#utility.yul\":3067:3070   */\n      0x00\n        /* \"#utility.yul\":3088:3155   */\n      tag_163\n        /* \"#utility.yul\":3152:3154   */\n      0x17\n        /* \"#utility.yul\":3147:3150   */\n      dup4\n        /* \"#utility.yul\":3088:3155   */\n      tag_107\n      jump\t// in\n    tag_163:\n        /* \"#utility.yul\":3081:3155   */\n      swap2\n      pop\n        /* \"#utility.yul\":3164:3257   */\n      tag_164\n        /* \"#utility.yul\":3253:3256   */\n      dup3\n        /* \"#utility.yul\":3164:3257   */\n      tag_108\n      jump\t// in\n    tag_164:\n        /* \"#utility.yul\":3282:3284   */\n      0x20\n        /* \"#utility.yul\":3277:3280   */\n      dup3\n        /* \"#utility.yul\":3273:3285   */\n      add\n        /* \"#utility.yul\":3266:3285   */\n      swap1\n      pop\n        /* \"#utility.yul\":2925:3291   */\n      swap2\n      swap1\n      pop\n      jump\t// out\n        /* \"#utility.yul\":3297:3716   */\n    tag_37:\n        /* \"#utility.yul\":3463:3467   */\n      0x00\n        /* \"#utility.yul\":3501:3503   */\n      0x20\n        /* \"#utility.yul\":3490:3499   */\n      dup3\n        /* \"#utility.yul\":3486:3504   */\n      add\n        /* \"#utility.yul\":3478:3504   */\n      swap1\n      pop\n        /* \"#utility.yul\":3550:3559   */\n      dup2\n        /* \"#utility.yul\":3544:3548   */\n      dup2\n        /* \"#utility.yul\":3540:3560   */\n      sub\n        /* \"#utility.yul\":3536:3537   */\n      0x00\n        /* \"#utility.yul\":3525:3534   */\n      dup4\n        /* \"#utility.yul\":3521:3538   */\n      add\n        /* \"#utility.yul\":3514:3561   */\n      mstore\n        /* \"#utility.yul\":3578:3709   */\n      tag_166\n        /* \"#utility.yul\":3704:3708   */\n      dup2\n        /* \"#utility.yul\":3578:3709   */\n      tag_109\n      jump\t// in\n    tag_166:\n        /* \"#utility.yul\":3570:3709   */\n      swap1\n      pop\n        /* \"#utility.yul\":3297:3716   */\n      swap2\n      swap1\n      pop\n      jump\t// out\n        /* \"#utility.yul\":3722:3902   */\n    tag_44:\n        /* \"#utility.yul\":3770:3847   */\n      0x4e487b7100000000000000000000000000000000000000000000000000000000\n        /* \"#utility.yul\":3767:3768   */\n      0x00\n        /* \"#utility.yul\":3760:3848   */\n      mstore\n        /* \"#utility.yul\":3867:3871   */\n      0x32\n        /* \"#utility.yul\":3864:3865   */\n      0x04\n        /* \"#utility.yul\":3857:3872   */\n      mstore\n        /* \"#utility.yul\":3891:3895   */\n      0x24\n        /* \"#utility.yul\":3888:3889   */\n      0x00\n        /* \"#utility.yul\":3881:3896   */\n      revert\n        /* \"#utility.yul\":3908:4088   */\n    tag_110:\n        /* \"#utility.yul\":3956:4033   */\n      0x4e487b7100000000000000000000000000000000000000000000000000000000\n        /* \"#utility.yul\":3953:3954   */\n      0x00\n        /* \"#utility.yul\":3946:4034   */\n      mstore\n        /* \"#utility.yul\":4053:4057   */\n      0x11\n        /* \"#utility.yul\":4050:4051   */\n      0x04\n        /* \"#utility.yul\":4043:4058   */\n      mstore\n        /* \"#utility.yul\":4077:4081   */\n      0x24\n        /* \"#utility.yul\":4074:4075   */\n      0x00\n        /* \"#utility.yul\":4067:4082   */\n      revert\n        /* \"#utility.yul\":4094:4327   */\n    tag_47:\n        /* \"#utility.yul\":4133:4136   */\n      0x00\n        /* \"#utility.yul\":4156:4180   */\n      tag_170\n        /* \"#utility.yul\":4174:4179   */\n      dup3\n        /* \"#utility.yul\":4156:4180   */\n      tag_102\n      jump\t// in\n    tag_170:\n        /* \"#utility.yul\":4147:4180   */\n      swap2\n      pop\n        /* \"#utility.yul\":4202:4268   */\n      0xffffffffffffffffffffffffffffffffffffffffffffffffffffffffffffffff\n        /* \"#utility.yul\":4195:4200   */\n      dup3\n        /* \"#utility.yul\":4192:4269   */\n      eq\n        /* \"#utility.yul\":4189:4292   */\n      iszero\n      tag_171\n      jumpi\n        /* \"#utility.yul\":4272:4290   */\n      tag_172\n      tag_110\n      jump\t// in\n    tag_172:\n        /* \"#utility.yul\":4189:4292   */\n    tag_171:\n        /* \"#utility.yul\":4319:4320   */\n      0x01\n        /* \"#utility.yul\":4312:4317   */\n      dup3\n        /* \"#utility.yul\":4308:4321   */\n      add\n        /* \"#utility.yul\":4301:4321   */\n      swap1\n      pop\n        /* \"#utility.yul\":4094:4327   */\n      swap2\n      swap1\n      pop\n      jump\t// out\n        /* \"#utility.yul\":4333:4513   */\n    tag_50:\n        /* \"#utility.yul\":4381:4458   */\n      0x4e487b7100000000000000000000000000000000000000000000000000000000\n        /* \"#utility.yul\":4378:4379   */\n      0x00\n        /* \"#utility.yul\":4371:4459   */\n      mstore\n        /* \"#utility.yul\":4478:4482   */\n      0x41\n        /* \"#utility.yul\":4475:4476   */\n      0x04\n        /* \"#utility.yul\":4468:4483   */\n      mstore\n        /* \"#utility.yul\":4502:4506   */\n      0x24\n        /* \"#utility.yul\":4499:4500   */\n      0x00\n        /* \"#utility.yul\":4492:4507   */\n      revert\n        /* \"#utility.yul\":4519:4666   */\n    tag_111:\n        /* \"#utility.yul\":4620:4631   */\n      0x00\n        /* \"#utility.yul\":4657:4660   */\n      dup2\n        /* \"#utility.yul\":4642:4660   */\n      swap1\n      pop\n        /* \"#utility.yul\":4519:4666   */\n      swap3\n      swap2\n      pop\n      pop\n      jump\t// out\n        /* \"#utility.yul\":4672:4786   */\n    tag_112:\n      pop\n      jump\t// out\n        /* \"#utility.yul\":4792:5190   */\n    tag_113:\n        /* \"#utility.yul\":4951:4954   */\n      0x00\n        /* \"#utility.yul\":4972:5055   */\n      tag_177\n        /* \"#utility.yul\":5053:5054   */\n      0x00\n        /* \"#utility.yul\":5048:5051   */\n      dup4\n        /* \"#utility.yul\":4972:5055   */\n      tag_111\n      jump\t// in\n    tag_177:\n        /* \"#utility.yul\":4965:5055   */\n      swap2\n      pop\n        /* \"#utility.yul\":5064:5157   */\n      tag_178\n        /* \"#utility.yul\":5153:5156   */\n      dup3\n        /* \"#utility.yul\":5064:5157   */\n      tag_112\n      jump\t// in\n    tag_178:\n        /* \"#utility.yul\":5182:5183   */\n      0x00\n        /* \"#utility.yul\":5177:5180   */\n      dup3\n        /* \"#utility.yul\":5173:5184   */\n      add\n        /* \"#utility.yul\":5166:5184   */\n      swap1\n      pop\n        /* \"#utility.yul\":4792:5190   */\n      swap2\n      swap1\n      pop\n      jump\t// out\n        /* \"#utility.yul\":5196:5575   */\n    tag_55:\n        /* \"#utility.yul\":5380:5383   */\n      0x00\n        /* \"#utility.yul\":5402:5549   */\n      tag_180\n        /* \"#utility.yul\":5545:5548   */\n      dup3\n        /* \"#utility.yul\":5402:5549   */\n      tag_113\n      jump\t// in\n    tag_180:\n        /* \"#utility.yul\":5395:5549   */\n      swap2\n      pop\n        /* \"#utility.yul\":5566:5569   */\n      dup2\n        /* \"#utility.yul\":5559:5569   */\n      swap1\n      pop\n        /* \"#utility.yul\":5196:5575   */\n      swap2\n      swap1\n      pop\n      jump\t// out\n        /* \"#utility.yul\":5581:5742   */\n    tag_114:\n        /* \"#utility.yul\":5721:5734   */\n      0x43616c6c206661696c6564000000000000000000000000000000000000000000\n        /* \"#utility.yul\":5717:5718   */\n      0x00\n        /* \"#utility.yul\":5709:5715   */\n      dup3\n        /* \"#utility.yul\":5705:5719   */\n      add\n        /* \"#utility.yul\":5698:5735   */\n      mstore\n        /* \"#utility.yul\":5581:5742   */\n      pop\n      jump\t// out\n        /* \"#utility.yul\":5748:6114   */\n    tag_115:\n        /* \"#utility.yul\":5890:5893   */\n      0x00\n        /* \"#utility.yul\":5911:5978   */\n      tag_183\n        /* \"#utility.yul\":5975:5977   */\n      0x0b\n        /* \"#utility.yul\":5970:5973   */\n      dup4\n        /* \"#utility.yul\":5911:5978   */\n      tag_107\n      jump\t// in\n    tag_183:\n        /* \"#utility.yul\":5904:5978   */\n      swap2\n      pop\n        /* \"#utility.yul\":5987:6080   */\n      tag_184\n        /* \"#utility.yul\":6076:6079   */\n      dup3\n        /* \"#utility.yul\":5987:6080   */\n      tag_114\n      jump\t// in\n    tag_184:\n        /* \"#utility.yul\":6105:6107   */\n      0x20\n        /* \"#utility.yul\":6100:6103   */\n      dup3\n        /* \"#utility.yul\":6096:6108   */\n      add\n        /* \"#utility.yul\":6089:6108   */\n      swap1\n      pop\n        /* \"#utility.yul\":5748:6114   */\n      swap2\n      swap1\n      pop\n      jump\t// out\n        /* \"#utility.yul\":6120:6539   */\n    tag_61:\n        /* \"#utility.yul\":6286:6290   */\n      0x00\n        /* \"#utility.yul\":6324:6326   */\n      0x20\n        /* \"#utility.yul\":6313:6322   */\n      dup3\n        /* \"#utility.yul\":6309:6327   */\n      add\n        /* \"#utility.yul\":6301:6327   */\n      swap1\n      pop\n        /* \"#utility.yul\":6373:6382   */\n      dup2\n        /* \"#utility.yul\":6367:6371   */\n      dup2\n        /* \"#utility.yul\":6363:6383   */\n      sub\n        /* \"#utility.yul\":6359:6360   */\n      0x00\n        /* \"#utility.yul\":6348:6357   */\n      dup4\n        /* \"#utility.yul\":6344:6361   */\n      add\n        /* \"#utility.yul\":6337:6384   */\n      mstore\n        /* \"#utility.yul\":6401:6532   */\n      tag_186\n        /* \"#utility.yul\":6527:6531   */\n      dup2\n        /* \"#utility.yul\":6401:6532   */\n      tag_115\n      jump\t// in\n    tag_186:\n        /* \"#utility.yul\":6393:6532   */\n      swap1\n      pop\n        /* \"#utility.yul\":6120:6539   */\n      swap2\n      swap1\n      pop\n      jump\t// out\n        /* \"#utility.yul\":6545:6722   */\n    tag_116:\n        /* \"#utility.yul\":6685:6714   */\n      0x596f75206e65656420746f207370656e64206d6f726520455448210000000000\n        /* \"#utility.yul\":6681:6682   */\n      0x00\n        /* \"#utility.yul\":6673:6679   */\n      dup3\n        /* \"#utility.yul\":6669:6683   */\n      add\n        /* \"#utility.yul\":6662:6715   */\n      mstore\n        /* \"#utility.yul\":6545:6722   */\n      pop\n      jump\t// out\n        /* \"#utility.yul\":6728:7094   */\n    tag_117:\n        /* \"#utility.yul\":6870:6873   */\n      0x00\n        /* \"#utility.yul\":6891:6958   */\n      tag_189\n        /* \"#utility.yul\":6955:6957   */\n      0x1b\n        /* \"#utility.yul\":6950:6953   */\n      dup4\n        /* \"#utility.yul\":6891:6958   */\n      tag_107\n      jump\t// in\n    tag_189:\n        /* \"#utility.yul\":6884:6958   */\n      swap2\n      pop\n        /* \"#utility.yul\":6967:7060   */\n      tag_190\n        /* \"#utility.yul\":7056:7059   */\n      dup3\n        /* \"#utility.yul\":6967:7060   */\n      tag_116\n      jump\t// in\n    tag_190:\n        /* \"#utility.yul\":7085:7087   */\n      0x20\n        /* \"#utility.yul\":7080:7083   */\n      dup3\n        /* \"#utility.yul\":7076:7088   */\n      add\n        /* \"#utility.yul\":7069:7088   */\n      swap1\n      pop\n        /* \"#utility.yul\":6728:7094   */\n      swap2\n      swap1\n      pop\n      jump\t// out\n        /* \"#utility.yul\":7100:7519   */\n    tag_67:\n        /* \"#utility.yul\":7266:7270   */\n      0x00\n        /* \"#utility.yul\":7304:7306   */\n      0x20\n        /* \"#utility.yul\":7293:7302   */\n      dup3\n        /* \"#utility.yul\":7289:7307   */\n      add\n        /* \"#utility.yul\":7281:7307   */\n      swap1\n      pop\n        /* \"#utility.yul\":7353:7362   */\n      dup2\n        /* \"#utility.yul\":7347:7351   */\n      dup2\n        /* \"#utility.yul\":7343:7363   */\n      sub\n        /* \"#utility.yul\":7339:7340   */\n      0x00\n        /* \"#utility.yul\":7328:7337   */\n      dup4\n        /* \"#utility.yul\":7324:7341   */\n      add\n        /* \"#utility.yul\":7317:7364   */\n      mstore\n        /* \"#utility.yul\":7381:7512   */\n      tag_192\n        /* \"#utility.yul\":7507:7511   */\n      dup2\n        /* \"#utility.yul\":7381:7512   */\n      tag_117\n      jump\t// in\n    tag_192:\n        /* \"#utility.yul\":7373:7512   */\n      swap1\n      pop\n        /* \"#utility.yul\":7100:7519   */\n      swap2\n      swap1\n      pop\n      jump\t// out\n        /* \"#utility.yul\":7525:7830   */\n    tag_69:\n        /* \"#utility.yul\":7565:7568   */\n      0x00\n        /* \"#utility.yul\":7584:7604   */\n      tag_194\n        /* \"#utility.yul\":7602:7603   */\n      dup3\n        /* \"#utility.yul\":7584:7604   */\n      tag_102\n      jump\t// in\n    tag_194:\n        /* \"#utility.yul\":7579:7604   */\n      swap2\n      pop\n        /* \"#utility.yul\":7618:7638   */\n      tag_195\n        /* \"#utility.yul\":7636:7637   */\n      dup4\n        /* \"#utility.yul\":7618:7638   */\n      tag_102\n      jump\t// in\n    tag_195:\n        /* \"#utility.yul\":7613:7638   */\n      swap3\n      pop\n        /* \"#utility.yul\":7772:7773   */\n      dup3\n        /* \"#utility.yul\":7704:7770   */\n      0xffffffffffffffffffffffffffffffffffffffffffffffffffffffffffffffff\n        /* \"#utility.yul\":7700:7774   */\n      sub\n        /* \"#utility.yul\":7697:7698   */\n      dup3\n        /* \"#utility.yul\":7694:7775   */\n      gt\n        /* \"#utility.yul\":7691:7798   */\n      iszero\n      tag_196\n      jumpi\n        /* \"#utility.yul\":7778:7796   */\n      tag_197\n      tag_110\n      jump\t// in\n    tag_197:\n        /* \"#utility.yul\":7691:7798   */\n    tag_196:\n        /* \"#utility.yul\":7822:7823   */\n      dup3\n        /* \"#utility.yul\":7819:7820   */\n      dup3\n        /* \"#utility.yul\":7815:7824   */\n      add\n        /* \"#utility.yul\":7808:7824   */\n      swap1\n      pop\n        /* \"#utility.yul\":7525:7830   */\n      swap3\n      swap2\n      pop\n      pop\n      jump\t// out\n        /* \"#utility.yul\":7836:8184   */\n    tag_77:\n        /* \"#utility.yul\":7876:7883   */\n      0x00\n        /* \"#utility.yul\":7899:7919   */\n      tag_199\n        /* \"#utility.yul\":7917:7918   */\n      dup3\n        /* \"#utility.yul\":7899:7919   */\n      tag_102\n      jump\t// in\n    tag_199:\n        /* \"#utility.yul\":7894:7919   */\n      swap2\n      pop\n        /* \"#utility.yul\":7933:7953   */\n      tag_200\n        /* \"#utility.yul\":7951:7952   */\n      dup4\n        /* \"#utility.yul\":7933:7953   */\n      tag_102\n      jump\t// in\n    tag_200:\n        /* \"#utility.yul\":7928:7953   */\n      swap3\n      pop\n        /* \"#utility.yul\":8121:8122   */\n      dup2\n        /* \"#utility.yul\":8053:8119   */\n      0xffffffffffffffffffffffffffffffffffffffffffffffffffffffffffffffff\n        /* \"#utility.yul\":8049:8123   */\n      div\n        /* \"#utility.yul\":8046:8047   */\n      dup4\n        /* \"#utility.yul\":8043:8124   */\n      gt\n        /* \"#utility.yul\":8038:8039   */\n      dup3\n        /* \"#utility.yul\":8031:8040   */\n      iszero\n        /* \"#utility.yul\":8024:8041   */\n      iszero\n        /* \"#utility.yul\":8020:8125   */\n      and\n        /* \"#utility.yul\":8017:8148   */\n      iszero\n      tag_201\n      jumpi\n        /* \"#utility.yul\":8128:8146   */\n      tag_202\n      tag_110\n      jump\t// in\n    tag_202:\n        /* \"#utility.yul\":8017:8148   */\n    tag_201:\n        /* \"#utility.yul\":8176:8177   */\n      dup3\n        /* \"#utility.yul\":8173:8174   */\n      dup3\n        /* \"#utility.yul\":8169:8178   */\n      mul\n        /* \"#utility.yul\":8158:8178   */\n      swap1\n      pop\n        /* \"#utility.yul\":7836:8184   */\n      swap3\n      swap2\n      pop\n      pop\n      jump\t// out\n        /* \"#utility.yul\":8190:8370   */\n    tag_118:\n        /* \"#utility.yul\":8238:8315   */\n      0x4e487b7100000000000000000000000000000000000000000000000000000000\n        /* \"#utility.yul\":8235:8236   */\n      0x00\n        /* \"#utility.yul\":8228:8316   */\n      mstore\n        /* \"#utility.yul\":8335:8339   */\n      0x12\n        /* \"#utility.yul\":8332:8333   */\n      0x04\n        /* \"#utility.yul\":8325:8340   */\n      mstore\n        /* \"#utility.yul\":8359:8363   */\n      0x24\n        /* \"#utility.yul\":8356:8357   */\n      0x00\n        /* \"#utility.yul\":8349:8364   */\n      revert\n        /* \"#utility.yul\":8376:8561   */\n    tag_79:\n        /* \"#utility.yul\":8416:8417   */\n      0x00\n        /* \"#utility.yul\":8433:8453   */\n      tag_205\n        /* \"#utility.yul\":8451:8452   */\n      dup3\n        /* \"#utility.yul\":8433:8453   */\n      tag_102\n      jump\t// in\n    tag_205:\n        /* \"#utility.yul\":8428:8453   */\n      swap2\n      pop\n        /* \"#utility.yul\":8467:8487   */\n      tag_206\n        /* \"#utility.yul\":8485:8486   */\n      dup4\n        /* \"#utility.yul\":8467:8487   */\n      tag_102\n      jump\t// in\n    tag_206:\n        /* \"#utility.yul\":8462:8487   */\n      swap3\n      pop\n        /* \"#utility.yul\":8506:8507   */\n      dup3\n        /* \"#utility.yul\":8496:8531   */\n      tag_207\n      jumpi\n        /* \"#utility.yul\":8511:8529   */\n      tag_208\n      tag_118\n      jump\t// in\n    tag_208:\n        /* \"#utility.yul\":8496:8531   */\n    tag_207:\n        /* \"#utility.yul\":8553:8554   */\n      dup3\n        /* \"#utility.yul\":8550:8551   */\n      dup3\n        /* \"#utility.yul\":8546:8555   */\n      div\n        /* \"#utility.yul\":8541:8555   */\n      swap1\n      pop\n        /* \"#utility.yul\":8376:8561   */\n      swap3\n      swap2\n      pop\n      pop\n      jump\t// out\n        /* \"#utility.yul\":8567:8672   */\n    tag_119:\n        /* \"#utility.yul\":8603:8610   */\n      0x00\n        /* \"#utility.yul\":8643:8665   */\n      0xffffffffffffffffffff\n        /* \"#utility.yul\":8636:8641   */\n      dup3\n        /* \"#utility.yul\":8632:8666   */\n      and\n        /* \"#utility.yul\":8621:8666   */\n      swap1\n      pop\n        /* \"#utility.yul\":8567:8672   */\n      swap2\n      swap1\n      pop\n      jump\t// out\n        /* \"#utility.yul\":8678:8798   */\n    tag_120:\n        /* \"#utility.yul\":8750:8773   */\n      tag_211\n        /* \"#utility.yul\":8767:8772   */\n      dup2\n        /* \"#utility.yul\":8750:8773   */\n      tag_119\n      jump\t// in\n    tag_211:\n        /* \"#utility.yul\":8743:8748   */\n      dup2\n        /* \"#utility.yul\":8740:8774   */\n      eq\n        /* \"#utility.yul\":8730:8792   */\n      tag_212\n      jumpi\n        /* \"#utility.yul\":8788:8789   */\n      0x00\n        /* \"#utility.yul\":8785:8786   */\n      dup1\n        /* \"#utility.yul\":8778:8790   */\n      revert\n        /* \"#utility.yul\":8730:8792   */\n    tag_212:\n        /* \"#utility.yul\":8678:8798   */\n      pop\n      jump\t// out\n        /* \"#utility.yul\":8804:8945   */\n    tag_121:\n        /* \"#utility.yul\":8860:8865   */\n      0x00\n        /* \"#utility.yul\":8891:8897   */\n      dup2\n        /* \"#utility.yul\":8885:8898   */\n      mload\n        /* \"#utility.yul\":8876:8898   */\n      swap1\n      pop\n        /* \"#utility.yul\":8907:8939   */\n      tag_214\n        /* \"#utility.yul\":8933:8938   */\n      dup2\n        /* \"#utility.yul\":8907:8939   */\n      tag_120\n      jump\t// in\n    tag_214:\n        /* \"#utility.yul\":8804:8945   */\n      swap3\n      swap2\n      pop\n      pop\n      jump\t// out\n        /* \"#utility.yul\":8951:9027   */\n    tag_122:\n        /* \"#utility.yul\":8987:8994   */\n      0x00\n        /* \"#utility.yul\":9016:9021   */\n      dup2\n        /* \"#utility.yul\":9005:9021   */\n      swap1\n      pop\n        /* \"#utility.yul\":8951:9027   */\n      swap2\n      swap1\n      pop\n      jump\t// out\n        /* \"#utility.yul\":9033:9153   */\n    tag_123:\n        /* \"#utility.yul\":9105:9128   */\n      tag_217\n        /* \"#utility.yul\":9122:9127   */\n      dup2\n        /* \"#utility.yul\":9105:9128   */\n      tag_122\n      jump\t// in\n    tag_217:\n        /* \"#utility.yul\":9098:9103   */\n      dup2\n        /* \"#utility.yul\":9095:9129   */\n      eq\n        /* \"#utility.yul\":9085:9147   */\n      tag_218\n      jumpi\n        /* \"#utility.yul\":9143:9144   */\n      0x00\n        /* \"#utility.yul\":9140:9141   */\n      dup1\n        /* \"#utility.yul\":9133:9145   */\n      revert\n        /* \"#utility.yul\":9085:9147   */\n    tag_218:\n        /* \"#utility.yul\":9033:9153   */\n      pop\n      jump\t// out\n        /* \"#utility.yul\":9159:9300   */\n    tag_124:\n        /* \"#utility.yul\":9215:9220   */\n      0x00\n        /* \"#utility.yul\":9246:9252   */\n      dup2\n        /* \"#utility.yul\":9240:9253   */\n      mload\n        /* \"#utility.yul\":9231:9253   */\n      swap1\n      pop\n        /* \"#utility.yul\":9262:9294   */\n      tag_220\n        /* \"#utility.yul\":9288:9293   */\n      dup2\n        /* \"#utility.yul\":9262:9294   */\n      tag_123\n      jump\t// in\n    tag_220:\n        /* \"#utility.yul\":9159:9300   */\n      swap3\n      swap2\n      pop\n      pop\n      jump\t// out\n        /* \"#utility.yul\":9306:9449   */\n    tag_125:\n        /* \"#utility.yul\":9363:9368   */\n      0x00\n        /* \"#utility.yul\":9394:9400   */\n      dup2\n        /* \"#utility.yul\":9388:9401   */\n      mload\n        /* \"#utility.yul\":9379:9401   */\n      swap1\n      pop\n        /* \"#utility.yul\":9410:9443   */\n      tag_222\n        /* \"#utility.yul\":9437:9442   */\n      dup2\n        /* \"#utility.yul\":9410:9443   */\n      tag_105\n      jump\t// in\n    tag_222:\n        /* \"#utility.yul\":9306:9449   */\n      swap3\n      swap2\n      pop\n      pop\n      jump\t// out\n        /* \"#utility.yul\":9455:10426   */\n    tag_85:\n        /* \"#utility.yul\":9558:9564   */\n      0x00\n        /* \"#utility.yul\":9566:9572   */\n      dup1\n        /* \"#utility.yul\":9574:9580   */\n      0x00\n        /* \"#utility.yul\":9582:9588   */\n      dup1\n        /* \"#utility.yul\":9590:9596   */\n      0x00\n        /* \"#utility.yul\":9639:9642   */\n      0xa0\n        /* \"#utility.yul\":9627:9636   */\n      dup7\n        /* \"#utility.yul\":9618:9625   */\n      dup9\n        /* \"#utility.yul\":9614:9637   */\n      sub\n        /* \"#utility.yul\":9610:9643   */\n      slt\n        /* \"#utility.yul\":9607:9727   */\n      iszero\n      tag_224\n      jumpi\n        /* \"#utility.yul\":9646:9725   */\n      tag_225\n      tag_96\n      jump\t// in\n    tag_225:\n        /* \"#utility.yul\":9607:9727   */\n    tag_224:\n        /* \"#utility.yul\":9766:9767   */\n      0x00\n        /* \"#utility.yul\":9791:9854   */\n      tag_226\n        /* \"#utility.yul\":9846:9853   */\n      dup9\n        /* \"#utility.yul\":9837:9843   */\n      dup3\n        /* \"#utility.yul\":9826:9835   */\n      dup10\n        /* \"#utility.yul\":9822:9844   */\n      add\n        /* \"#utility.yul\":9791:9854   */\n      tag_121\n      jump\t// in\n    tag_226:\n        /* \"#utility.yul\":9781:9854   */\n      swap6\n      pop\n        /* \"#utility.yul\":9737:9864   */\n      pop\n        /* \"#utility.yul\":9903:9905   */\n      0x20\n        /* \"#utility.yul\":9929:9992   */\n      tag_227\n        /* \"#utility.yul\":9984:9991   */\n      dup9\n        /* \"#utility.yul\":9975:9981   */\n      dup3\n        /* \"#utility.yul\":9964:9973   */\n      dup10\n        /* \"#utility.yul\":9960:9982   */\n      add\n        /* \"#utility.yul\":9929:9992   */\n      tag_124\n      jump\t// in\n    tag_227:\n        /* \"#utility.yul\":9919:9992   */\n      swap5\n      pop\n        /* \"#utility.yul\":9874:10002   */\n      pop\n        /* \"#utility.yul\":10041:10043   */\n      0x40\n        /* \"#utility.yul\":10067:10131   */\n      tag_228\n        /* \"#utility.yul\":10123:10130   */\n      dup9\n        /* \"#utility.yul\":10114:10120   */\n      dup3\n        /* \"#utility.yul\":10103:10112   */\n      dup10\n        /* \"#utility.yul\":10099:10121   */\n      add\n        /* \"#utility.yul\":10067:10131   */\n      tag_125\n      jump\t// in\n    tag_228:\n        /* \"#utility.yul\":10057:10131   */\n      swap4\n      pop\n        /* \"#utility.yul\":10012:10141   */\n      pop\n        /* \"#utility.yul\":10180:10182   */\n      0x60\n        /* \"#utility.yul\":10206:10270   */\n      tag_229\n        /* \"#utility.yul\":10262:10269   */\n      dup9\n        /* \"#utility.yul\":10253:10259   */\n      dup3\n        /* \"#utility.yul\":10242:10251   */\n      dup10\n        /* \"#utility.yul\":10238:10260   */\n      add\n        /* \"#utility.yul\":10206:10270   */\n      tag_125\n      jump\t// in\n    tag_229:\n        /* \"#utility.yul\":10196:10270   */\n      swap3\n      pop\n        /* \"#utility.yul\":10151:10280   */\n      pop\n        /* \"#utility.yul\":10319:10322   */\n      0x80\n        /* \"#utility.yul\":10346:10409   */\n      tag_230\n        /* \"#utility.yul\":10401:10408   */\n      dup9\n        /* \"#utility.yul\":10392:10398   */\n      dup3\n        /* \"#utility.yul\":10381:10390   */\n      dup10\n        /* \"#utility.yul\":10377:10399   */\n      add\n        /* \"#utility.yul\":10346:10409   */\n      tag_121\n      jump\t// in\n    tag_230:\n        /* \"#utility.yul\":10336:10409   */\n      swap2\n      pop\n        /* \"#utility.yul\":10290:10419   */\n      pop\n        /* \"#utility.yul\":9455:10426   */\n      swap3\n      swap6\n      pop\n      swap3\n      swap6\n      swap1\n      swap4\n      pop\n      jump\t// out\n        /* \"#utility.yul\":10432:11423   */\n    tag_87:\n        /* \"#utility.yul\":10471:10478   */\n      0x00\n        /* \"#utility.yul\":10494:10513   */\n      tag_232\n        /* \"#utility.yul\":10511:10512   */\n      dup3\n        /* \"#utility.yul\":10494:10513   */\n      tag_122\n      jump\t// in\n    tag_232:\n        /* \"#utility.yul\":10489:10513   */\n      swap2\n      pop\n        /* \"#utility.yul\":10527:10546   */\n      tag_233\n        /* \"#utility.yul\":10544:10545   */\n      dup4\n        /* \"#utility.yul\":10527:10546   */\n      tag_122\n      jump\t// in\n    tag_233:\n        /* \"#utility.yul\":10522:10546   */\n      swap3\n      pop\n        /* \"#utility.yul\":10728:10729   */\n      dup3\n        /* \"#utility.yul\":10660:10726   */\n      0x7fffffffffffffffffffffffffffffffffffffffffffffffffffffffffffffff\n        /* \"#utility.yul\":10656:10730   */\n      div\n        /* \"#utility.yul\":10653:10654   */\n      dup3\n        /* \"#utility.yul\":10650:10731   */\n      gt\n        /* \"#utility.yul\":10645:10646   */\n      0x00\n        /* \"#utility.yul\":10642:10643   */\n      dup5\n        /* \"#utility.yul\":10638:10647   */\n      sgt\n        /* \"#utility.yul\":10634:10635   */\n      0x00\n        /* \"#utility.yul\":10631:10632   */\n      dup5\n        /* \"#utility.yul\":10627:10636   */\n      sgt\n        /* \"#utility.yul\":10623:10648   */\n      and\n        /* \"#utility.yul\":10619:10732   */\n      and\n        /* \"#utility.yul\":10616:10755   */\n      iszero\n      tag_234\n      jumpi\n        /* \"#utility.yul\":10735:10753   */\n      tag_235\n      tag_110\n      jump\t// in\n    tag_235:\n        /* \"#utility.yul\":10616:10755   */\n    tag_234:\n        /* \"#utility.yul\":10939:10940   */\n      dup2\n        /* \"#utility.yul\":10871:10937   */\n      0x8000000000000000000000000000000000000000000000000000000000000000\n        /* \"#utility.yul\":10866:10941   */\n      sdiv\n        /* \"#utility.yul\":10863:10864   */\n      dup4\n        /* \"#utility.yul\":10859:10942   */\n      slt\n        /* \"#utility.yul\":10854:10855   */\n      0x00\n        /* \"#utility.yul\":10851:10852   */\n      dup5\n        /* \"#utility.yul\":10847:10856   */\n      slt\n        /* \"#utility.yul\":10843:10844   */\n      0x00\n        /* \"#utility.yul\":10840:10841   */\n      dup5\n        /* \"#utility.yul\":10836:10845   */\n      sgt\n        /* \"#utility.yul\":10832:10857   */\n      and\n        /* \"#utility.yul\":10828:10943   */\n      and\n        /* \"#utility.yul\":10825:10966   */\n      iszero\n      tag_236\n      jumpi\n        /* \"#utility.yul\":10946:10964   */\n      tag_237\n      tag_110\n      jump\t// in\n    tag_237:\n        /* \"#utility.yul\":10825:10966   */\n    tag_236:\n        /* \"#utility.yul\":11150:11151   */\n      dup3\n        /* \"#utility.yul\":11082:11148   */\n      0x8000000000000000000000000000000000000000000000000000000000000000\n        /* \"#utility.yul\":11077:11152   */\n      sdiv\n        /* \"#utility.yul\":11074:11075   */\n      dup3\n        /* \"#utility.yul\":11070:11153   */\n      slt\n        /* \"#utility.yul\":11065:11066   */\n      0x00\n        /* \"#utility.yul\":11062:11063   */\n      dup5\n        /* \"#utility.yul\":11058:11067   */\n      sgt\n        /* \"#utility.yul\":11054:11055   */\n      0x00\n        /* \"#utility.yul\":11051:11052   */\n      dup5\n        /* \"#utility.yul\":11047:11056   */\n      slt\n        /* \"#utility.yul\":11043:11068   */\n      and\n        /* \"#utility.yul\":11039:11154   */\n      and\n        /* \"#utility.yul\":11036:11177   */\n      iszero\n      tag_238\n      jumpi\n        /* \"#utility.yul\":11157:11175   */\n      tag_239\n      tag_110\n      jump\t// in\n    tag_239:\n        /* \"#utility.yul\":11036:11177   */\n    tag_238:\n        /* \"#utility.yul\":11360:11361   */\n      dup3\n        /* \"#utility.yul\":11292:11358   */\n      0x7fffffffffffffffffffffffffffffffffffffffffffffffffffffffffffffff\n        /* \"#utility.yul\":11287:11362   */\n      sdiv\n        /* \"#utility.yul\":11284:11285   */\n      dup3\n        /* \"#utility.yul\":11280:11363   */\n      slt\n        /* \"#utility.yul\":11275:11276   */\n      0x00\n        /* \"#utility.yul\":11272:11273   */\n      dup5\n        /* \"#utility.yul\":11268:11277   */\n      slt\n        /* \"#utility.yul\":11264:11265   */\n      0x00\n        /* \"#utility.yul\":11261:11262   */\n      dup5\n        /* \"#utility.yul\":11257:11266   */\n      slt\n        /* \"#utility.yul\":11253:11278   */\n      and\n        /* \"#utility.yul\":11249:11364   */\n      and\n        /* \"#utility.yul\":11246:11387   */\n      iszero\n      tag_240\n      jumpi\n        /* \"#utility.yul\":11367:11385   */\n      tag_241\n      tag_110\n      jump\t// in\n    tag_241:\n        /* \"#utility.yul\":11246:11387   */\n    tag_240:\n        /* \"#utility.yul\":11415:11416   */\n      dup3\n        /* \"#utility.yul\":11412:11413   */\n      dup3\n        /* \"#utility.yul\":11408:11417   */\n      mul\n        /* \"#utility.yul\":11397:11417   */\n      swap1\n      pop\n        /* \"#utility.yul\":10432:11423   */\n      swap3\n      swap2\n      pop\n      pop\n      jump\t// out\n\n    auxdata: 0xa26469706673582212200d1099a5c695ce142071ed94c25579bf81c78a9df3e11f2d34465328cfd7936d64736f6c63430008080033\n}\n",
				"bytecode": {
					"linkReferences": {},
					"object": "608060405234801561001057600080fd5b5033600260006101000a81548173ffffffffffffffffffffffffffffffffffffffff021916908373ffffffffffffffffffffffffffffffffffffffff160217905550610dd7806100616000396000f3fe6080604052600436106100555760003560e01c80633ccfd60b1461005a5780633e47d6f3146100645780636b69a592146100a15780638da5cb5b146100cc578063b60d4288146100f7578063dc0d3dff14610101575b600080fd5b61006261013e565b005b34801561007057600080fd5b5061008b6004803603810190610086919061071d565b610389565b6040516100989190610763565b60405180910390f35b3480156100ad57600080fd5b506100b66103a1565b6040516100c39190610763565b60405180910390f35b3480156100d857600080fd5b506100e16103ae565b6040516100ee919061078d565b60405180910390f35b6100ff6103d4565b005b34801561010d57600080fd5b50610128600480360381019061012391906107d4565b6104e2565b604051610135919061078d565b60405180910390f35b600260009054906101000a900473ffffffffffffffffffffffffffffffffffffffff1673ffffffffffffffffffffffffffffffffffffffff163373ffffffffffffffffffffffffffffffffffffffff16146101ce576040517f08c379a00000000000000000000000000000000000000000000000000000000081526004016101c59061085e565b60405180910390fd5b60005b600180549050811015610279576000600182815481106101f4576101f361087e565b5b9060005260206000200160009054906101000a900473ffffffffffffffffffffffffffffffffffffffff16905060008060008373ffffffffffffffffffffffffffffffffffffffff1673ffffffffffffffffffffffffffffffffffffffff16815260200190815260200160002081905550508080610271906108dc565b9150506101d1565b50600067ffffffffffffffff81111561029557610294610925565b5b6040519080825280602002602001820160405280156102c35781602001602082028036833780820191505090505b50600190805190602001906102d9929190610613565b5060003373ffffffffffffffffffffffffffffffffffffffff164760405161030090610985565b60006040518083038185875af1925050503d806000811461033d576040519150601f19603f3d011682016040523d82523d6000602084013e610342565b606091505b5050905080610386576040517f08c379a000000000000000000000000000000000000000000000000000000000815260040161037d906109e6565b60405180910390fd5b50565b60006020528060005260406000206000915090505481565b6802b5e3af16b188000081565b600260009054906101000a900473ffffffffffffffffffffffffffffffffffffffff1681565b6802b5e3af16b18800006103e734610521565b1015610428576040517f08c379a000000000000000000000000000000000000000000000000000000000815260040161041f90610a52565b60405180910390fd5b346000803373ffffffffffffffffffffffffffffffffffffffff1673ffffffffffffffffffffffffffffffffffffffff16815260200190815260200160002060008282546104769190610a72565b925050819055506001339080600181540180825580915050600190039060005260206000200160009091909190916101000a81548173ffffffffffffffffffffffffffffffffffffffff021916908373ffffffffffffffffffffffffffffffffffffffff160217905550565b600181815481106104f257600080fd5b906000526020600020016000915054906101000a900473ffffffffffffffffffffffffffffffffffffffff1681565b60008061052c61055b565b90506000670de0b6b3a764000084836105459190610ac8565b61054f9190610b51565b90508092505050919050565b600080738a753747a1fa494ec906ce90e9f37563a8af630e905060008173ffffffffffffffffffffffffffffffffffffffff1663feaf968c6040518163ffffffff1660e01b815260040160a06040518083038186803b1580156105bd57600080fd5b505afa1580156105d1573d6000803e3d6000fd5b505050506040513d601f19601f820116820180604052508101906105f59190610c0f565b5050509150506402540be4008161060c9190610c8a565b9250505090565b82805482825590600052602060002090810192821561068c579160200282015b8281111561068b5782518260006101000a81548173ffffffffffffffffffffffffffffffffffffffff021916908373ffffffffffffffffffffffffffffffffffffffff16021790555091602001919060010190610633565b5b509050610699919061069d565b5090565b5b808211156106b657600081600090555060010161069e565b5090565b600080fd5b600073ffffffffffffffffffffffffffffffffffffffff82169050919050565b60006106ea826106bf565b9050919050565b6106fa816106df565b811461070557600080fd5b50565b600081359050610717816106f1565b92915050565b600060208284031215610733576107326106ba565b5b600061074184828501610708565b91505092915050565b6000819050919050565b61075d8161074a565b82525050565b60006020820190506107786000830184610754565b92915050565b610787816106df565b82525050565b60006020820190506107a2600083018461077e565b92915050565b6107b18161074a565b81146107bc57600080fd5b50565b6000813590506107ce816107a8565b92915050565b6000602082840312156107ea576107e96106ba565b5b60006107f8848285016107bf565b91505092915050565b600082825260208201905092915050565b7f53656e646572206973206e6f7420746865204f776e6572000000000000000000600082015250565b6000610848601783610801565b915061085382610812565b602082019050919050565b600060208201905081810360008301526108778161083b565b9050919050565b7f4e487b7100000000000000000000000000000000000000000000000000000000600052603260045260246000fd5b7f4e487b7100000000000000000000000000000000000000000000000000000000600052601160045260246000fd5b60006108e78261074a565b91507fffffffffffffffffffffffffffffffffffffffffffffffffffffffffffffffff82141561091a576109196108ad565b5b600182019050919050565b7f4e487b7100000000000000000000000000000000000000000000000000000000600052604160045260246000fd5b600081905092915050565b50565b600061096f600083610954565b915061097a8261095f565b600082019050919050565b600061099082610962565b9150819050919050565b7f43616c6c206661696c6564000000000000000000000000000000000000000000600082015250565b60006109d0600b83610801565b91506109db8261099a565b602082019050919050565b600060208201905081810360008301526109ff816109c3565b9050919050565b7f596f75206e65656420746f207370656e64206d6f726520455448210000000000600082015250565b6000610a3c601b83610801565b9150610a4782610a06565b602082019050919050565b60006020820190508181036000830152610a6b81610a2f565b9050919050565b6000610a7d8261074a565b9150610a888361074a565b9250827fffffffffffffffffffffffffffffffffffffffffffffffffffffffffffffffff03821115610abd57610abc6108ad565b5b828201905092915050565b6000610ad38261074a565b9150610ade8361074a565b9250817fffffffffffffffffffffffffffffffffffffffffffffffffffffffffffffffff0483118215151615610b1757610b166108ad565b5b828202905092915050565b7f4e487b7100000000000000000000000000000000000000000000000000000000600052601260045260246000fd5b6000610b5c8261074a565b9150610b678361074a565b925082610b7757610b76610b22565b5b828204905092915050565b600069ffffffffffffffffffff82169050919050565b610ba181610b82565b8114610bac57600080fd5b50565b600081519050610bbe81610b98565b92915050565b6000819050919050565b610bd781610bc4565b8114610be257600080fd5b50565b600081519050610bf481610bce565b92915050565b600081519050610c09816107a8565b92915050565b600080600080600060a08688031215610c2b57610c2a6106ba565b5b6000610c3988828901610baf565b9550506020610c4a88828901610be5565b9450506040610c5b88828901610bfa565b9350506060610c6c88828901610bfa565b9250506080610c7d88828901610baf565b9150509295509295909350565b6000610c9582610bc4565b9150610ca083610bc4565b9250827f7fffffffffffffffffffffffffffffffffffffffffffffffffffffffffffffff0482116000841360008413161615610cdf57610cde6108ad565b5b817f80000000000000000000000000000000000000000000000000000000000000000583126000841260008413161615610d1c57610d1b6108ad565b5b827f80000000000000000000000000000000000000000000000000000000000000000582126000841360008412161615610d5957610d586108ad565b5b827f7fffffffffffffffffffffffffffffffffffffffffffffffffffffffffffffff0582126000841260008412161615610d9657610d956108ad565b5b82820290509291505056fea26469706673582212200d1099a5c695ce142071ed94c25579bf81c78a9df3e11f2d34465328cfd7936d64736f6c63430008080033",
					"opcodes": "PUSH1 0x80 PUSH1 0x40 MSTORE CALLVALUE DUP1 ISZERO PUSH2 0x10 JUMPI PUSH1 0x0 DUP1 REVERT JUMPDEST POP CALLER PUSH1 0x2 PUSH1 0x0 PUSH2 0x100 EXP DUP2 SLOAD DUP2 PUSH20 0xFFFFFFFFFFFFFFFFFFFFFFFFFFFFFFFFFFFFFFFF MUL NOT AND SWAP1 DUP4 PUSH20 0xFFFFFFFFFFFFFFFFFFFFFFFFFFFFFFFFFFFFFFFF AND MUL OR SWAP1 SSTORE POP PUSH2 0xDD7 DUP1 PUSH2 0x61 PUSH1 0x0 CODECOPY PUSH1 0x0 RETURN INVALID PUSH1 0x80 PUSH1 0x40 MSTORE PUSH1 0x4 CALLDATASIZE LT PUSH2 0x55 JUMPI PUSH1 0x0 CALLDATALOAD PUSH1 0xE0 SHR DUP1 PUSH4 0x3CCFD60B EQ PUSH2 0x5A JUMPI DUP1 PUSH4 0x3E47D6F3 EQ PUSH2 0x64 JUMPI DUP1 PUSH4 0x6B69A592 EQ PUSH2 0xA1 JUMPI DUP1 PUSH4 0x8DA5CB5B EQ PUSH2 0xCC JUMPI DUP1 PUSH4 0xB60D4288 EQ PUSH2 0xF7 JUMPI DUP1 PUSH4 0xDC0D3DFF EQ PUSH2 0x101 JUMPI JUMPDEST PUSH1 0x0 DUP1 REVERT JUMPDEST PUSH2 0x62 PUSH2 0x13E JUMP JUMPDEST STOP JUMPDEST CALLVALUE DUP1 ISZERO PUSH2 0x70 JUMPI PUSH1 0x0 DUP1 REVERT JUMPDEST POP PUSH2 0x8B PUSH1 0x4 DUP1 CALLDATASIZE SUB DUP2 ADD SWAP1 PUSH2 0x86 SWAP2 SWAP1 PUSH2 0x71D JUMP JUMPDEST PUSH2 0x389 JUMP JUMPDEST PUSH1 0x40 MLOAD PUSH2 0x98 SWAP2 SWAP1 PUSH2 0x763 JUMP JUMPDEST PUSH1 0x40 MLOAD DUP1 SWAP2 SUB SWAP1 RETURN JUMPDEST CALLVALUE DUP1 ISZERO PUSH2 0xAD JUMPI PUSH1 0x0 DUP1 REVERT JUMPDEST POP PUSH2 0xB6 PUSH2 0x3A1 JUMP JUMPDEST PUSH1 0x40 MLOAD PUSH2 0xC3 SWAP2 SWAP1 PUSH2 0x763 JUMP JUMPDEST PUSH1 0x40 MLOAD DUP1 SWAP2 SUB SWAP1 RETURN JUMPDEST CALLVALUE DUP1 ISZERO PUSH2 0xD8 JUMPI PUSH1 0x0 DUP1 REVERT JUMPDEST POP PUSH2 0xE1 PUSH2 0x3AE JUMP JUMPDEST PUSH1 0x40 MLOAD PUSH2 0xEE SWAP2 SWAP1 PUSH2 0x78D JUMP JUMPDEST PUSH1 0x40 MLOAD DUP1 SWAP2 SUB SWAP1 RETURN JUMPDEST PUSH2 0xFF PUSH2 0x3D4 JUMP JUMPDEST STOP JUMPDEST CALLVALUE DUP1 ISZERO PUSH2 0x10D JUMPI PUSH1 0x0 DUP1 REVERT JUMPDEST POP PUSH2 0x128 PUSH1 0x4 DUP1 CALLDATASIZE SUB DUP2 ADD SWAP1 PUSH2 0x123 SWAP2 SWAP1 PUSH2 0x7D4 JUMP JUMPDEST PUSH2 0x4E2 JUMP JUMPDEST PUSH1 0x40 MLOAD PUSH2 0x135 SWAP2 SWAP1 PUSH2 0x78D JUMP JUMPDEST PUSH1 0x40 MLOAD DUP1 SWAP2 SUB SWAP1 RETURN JUMPDEST PUSH1 0x2 PUSH1 0x0 SWAP1 SLOAD SWAP1 PUSH2 0x100 EXP SWAP1 DIV PUSH20 0xFFFFFFFFFFFFFFFFFFFFFFFFFFFFFFFFFFFFFFFF AND PUSH20 0xFFFFFFFFFFFFFFFFFFFFFFFFFFFFFFFFFFFFFFFF AND CALLER PUSH20 0xFFFFFFFFFFFFFFFFFFFFFFFFFFFFFFFFFFFFFFFF AND EQ PUSH2 0x1CE JUMPI PUSH1 0x40 MLOAD PUSH32 0x8C379A000000000000000000000000000000000000000000000000000000000 DUP2 MSTORE PUSH1 0x4 ADD PUSH2 0x1C5 SWAP1 PUSH2 0x85E JUMP JUMPDEST PUSH1 0x40 MLOAD DUP1 SWAP2 SUB SWAP1 REVERT JUMPDEST PUSH1 0x0 JUMPDEST PUSH1 0x1 DUP1 SLOAD SWAP1 POP DUP2 LT ISZERO PUSH2 0x279 JUMPI PUSH1 0x0 PUSH1 0x1 DUP3 DUP2 SLOAD DUP2 LT PUSH2 0x1F4 JUMPI PUSH2 0x1F3 PUSH2 0x87E JUMP JUMPDEST JUMPDEST SWAP1 PUSH1 0x0 MSTORE PUSH1 0x20 PUSH1 0x0 KECCAK256 ADD PUSH1 0x0 SWAP1 SLOAD SWAP1 PUSH2 0x100 EXP SWAP1 DIV PUSH20 0xFFFFFFFFFFFFFFFFFFFFFFFFFFFFFFFFFFFFFFFF AND SWAP1 POP PUSH1 0x0 DUP1 PUSH1 0x0 DUP4 PUSH20 0xFFFFFFFFFFFFFFFFFFFFFFFFFFFFFFFFFFFFFFFF AND PUSH20 0xFFFFFFFFFFFFFFFFFFFFFFFFFFFFFFFFFFFFFFFF AND DUP2 MSTORE PUSH1 0x20 ADD SWAP1 DUP2 MSTORE PUSH1 0x20 ADD PUSH1 0x0 KECCAK256 DUP2 SWAP1 SSTORE POP POP DUP1 DUP1 PUSH2 0x271 SWAP1 PUSH2 0x8DC JUMP JUMPDEST SWAP2 POP POP PUSH2 0x1D1 JUMP JUMPDEST POP PUSH1 0x0 PUSH8 0xFFFFFFFFFFFFFFFF DUP2 GT ISZERO PUSH2 0x295 JUMPI PUSH2 0x294 PUSH2 0x925 JUMP JUMPDEST JUMPDEST PUSH1 0x40 MLOAD SWAP1 DUP1 DUP3 MSTORE DUP1 PUSH1 0x20 MUL PUSH1 0x20 ADD DUP3 ADD PUSH1 0x40 MSTORE DUP1 ISZERO PUSH2 0x2C3 JUMPI DUP2 PUSH1 0x20 ADD PUSH1 0x20 DUP3 MUL DUP1 CALLDATASIZE DUP4 CALLDATACOPY DUP1 DUP3 ADD SWAP2 POP POP SWAP1 POP JUMPDEST POP PUSH1 0x1 SWAP1 DUP1 MLOAD SWAP1 PUSH1 0x20 ADD SWAP1 PUSH2 0x2D9 SWAP3 SWAP2 SWAP1 PUSH2 0x613 JUMP JUMPDEST POP PUSH1 0x0 CALLER PUSH20 0xFFFFFFFFFFFFFFFFFFFFFFFFFFFFFFFFFFFFFFFF AND SELFBALANCE PUSH1 0x40 MLOAD PUSH2 0x300 SWAP1 PUSH2 0x985 JUMP JUMPDEST PUSH1 0x0 PUSH1 0x40 MLOAD DUP1 DUP4 SUB DUP2 DUP6 DUP8 GAS CALL SWAP3 POP POP POP RETURNDATASIZE DUP1 PUSH1 0x0 DUP2 EQ PUSH2 0x33D JUMPI PUSH1 0x40 MLOAD SWAP2 POP PUSH1 0x1F NOT PUSH1 0x3F RETURNDATASIZE ADD AND DUP3 ADD PUSH1 0x40 MSTORE RETURNDATASIZE DUP3 MSTORE RETURNDATASIZE PUSH1 0x0 PUSH1 0x20 DUP5 ADD RETURNDATACOPY PUSH2 0x342 JUMP JUMPDEST PUSH1 0x60 SWAP2 POP JUMPDEST POP POP SWAP1 POP DUP1 PUSH2 0x386 JUMPI PUSH1 0x40 MLOAD PUSH32 0x8C379A000000000000000000000000000000000000000000000000000000000 DUP2 MSTORE PUSH1 0x4 ADD PUSH2 0x37D SWAP1 PUSH2 0x9E6 JUMP JUMPDEST PUSH1 0x40 MLOAD DUP1 SWAP2 SUB SWAP1 REVERT JUMPDEST POP JUMP JUMPDEST PUSH1 0x0 PUSH1 0x20 MSTORE DUP1 PUSH1 0x0 MSTORE PUSH1 0x40 PUSH1 0x0 KECCAK256 PUSH1 0x0 SWAP2 POP SWAP1 POP SLOAD DUP2 JUMP JUMPDEST PUSH9 0x2B5E3AF16B1880000 DUP2 JUMP JUMPDEST PUSH1 0x2 PUSH1 0x0 SWAP1 SLOAD SWAP1 PUSH2 0x100 EXP SWAP1 DIV PUSH20 0xFFFFFFFFFFFFFFFFFFFFFFFFFFFFFFFFFFFFFFFF AND DUP2 JUMP JUMPDEST PUSH9 0x2B5E3AF16B1880000 PUSH2 0x3E7 CALLVALUE PUSH2 0x521 JUMP JUMPDEST LT ISZERO PUSH2 0x428 JUMPI PUSH1 0x40 MLOAD PUSH32 0x8C379A000000000000000000000000000000000000000000000000000000000 DUP2 MSTORE PUSH1 0x4 ADD PUSH2 0x41F SWAP1 PUSH2 0xA52 JUMP JUMPDEST PUSH1 0x40 MLOAD DUP1 SWAP2 SUB SWAP1 REVERT JUMPDEST CALLVALUE PUSH1 0x0 DUP1 CALLER PUSH20 0xFFFFFFFFFFFFFFFFFFFFFFFFFFFFFFFFFFFFFFFF AND PUSH20 0xFFFFFFFFFFFFFFFFFFFFFFFFFFFFFFFFFFFFFFFF AND DUP2 MSTORE PUSH1 0x20 ADD SWAP1 DUP2 MSTORE PUSH1 0x20 ADD PUSH1 0x0 KECCAK256 PUSH1 0x0 DUP3 DUP3 SLOAD PUSH2 0x476 SWAP2 SWAP1 PUSH2 0xA72 JUMP JUMPDEST SWAP3 POP POP DUP2 SWAP1 SSTORE POP PUSH1 0x1 CALLER SWAP1 DUP1 PUSH1 0x1 DUP2 SLOAD ADD DUP1 DUP3 SSTORE DUP1 SWAP2 POP POP PUSH1 0x1 SWAP1 SUB SWAP1 PUSH1 0x0 MSTORE PUSH1 0x20 PUSH1 0x0 KECCAK256 ADD PUSH1 0x0 SWAP1 SWAP2 SWAP1 SWAP2 SWAP1 SWAP2 PUSH2 0x100 EXP DUP2 SLOAD DUP2 PUSH20 0xFFFFFFFFFFFFFFFFFFFFFFFFFFFFFFFFFFFFFFFF MUL NOT AND SWAP1 DUP4 PUSH20 0xFFFFFFFFFFFFFFFFFFFFFFFFFFFFFFFFFFFFFFFF AND MUL OR SWAP1 SSTORE POP JUMP JUMPDEST PUSH1 0x1 DUP2 DUP2 SLOAD DUP2 LT PUSH2 0x4F2 JUMPI PUSH1 0x0 DUP1 REVERT JUMPDEST SWAP1 PUSH1 0x0 MSTORE PUSH1 0x20 PUSH1 0x0 KECCAK256 ADD PUSH1 0x0 SWAP2 POP SLOAD SWAP1 PUSH2 0x100 EXP SWAP1 DIV PUSH20 0xFFFFFFFFFFFFFFFFFFFFFFFFFFFFFFFFFFFFFFFF AND DUP2 JUMP JUMPDEST PUSH1 0x0 DUP1 PUSH2 0x52C PUSH2 0x55B JUMP JUMPDEST SWAP1 POP PUSH1 0x0 PUSH8 0xDE0B6B3A7640000 DUP5 DUP4 PUSH2 0x545 SWAP2 SWAP1 PUSH2 0xAC8 JUMP JUMPDEST PUSH2 0x54F SWAP2 SWAP1 PUSH2 0xB51 JUMP JUMPDEST SWAP1 POP DUP1 SWAP3 POP POP POP SWAP2 SWAP1 POP JUMP JUMPDEST PUSH1 0x0 DUP1 PUSH20 0x8A753747A1FA494EC906CE90E9F37563A8AF630E SWAP1 POP PUSH1 0x0 DUP2 PUSH20 0xFFFFFFFFFFFFFFFFFFFFFFFFFFFFFFFFFFFFFFFF AND PUSH4 0xFEAF968C PUSH1 0x40 MLOAD DUP2 PUSH4 0xFFFFFFFF AND PUSH1 0xE0 SHL DUP2 MSTORE PUSH1 0x4 ADD PUSH1 0xA0 PUSH1 0x40 MLOAD DUP1 DUP4 SUB DUP2 DUP7 DUP1 EXTCODESIZE ISZERO DUP1 ISZERO PUSH2 0x5BD JUMPI PUSH1 0x0 DUP1 REVERT JUMPDEST POP GAS STATICCALL ISZERO DUP1 ISZERO PUSH2 0x5D1 JUMPI RETURNDATASIZE PUSH1 0x0 DUP1 RETURNDATACOPY RETURNDATASIZE PUSH1 0x0 REVERT JUMPDEST POP POP POP POP PUSH1 0x40 MLOAD RETURNDATASIZE PUSH1 0x1F NOT PUSH1 0x1F DUP3 ADD AND DUP3 ADD DUP1 PUSH1 0x40 MSTORE POP DUP2 ADD SWAP1 PUSH2 0x5F5 SWAP2 SWAP1 PUSH2 0xC0F JUMP JUMPDEST POP POP POP SWAP2 POP POP PUSH5 0x2540BE400 DUP2 PUSH2 0x60C SWAP2 SWAP1 PUSH2 0xC8A JUMP JUMPDEST SWAP3 POP POP POP SWAP1 JUMP JUMPDEST DUP3 DUP1 SLOAD DUP3 DUP3 SSTORE SWAP1 PUSH1 0x0 MSTORE PUSH1 0x20 PUSH1 0x0 KECCAK256 SWAP1 DUP2 ADD SWAP3 DUP3 ISZERO PUSH2 0x68C JUMPI SWAP2 PUSH1 0x20 MUL DUP3 ADD JUMPDEST DUP3 DUP2 GT ISZERO PUSH2 0x68B JUMPI DUP3 MLOAD DUP3 PUSH1 0x0 PUSH2 0x100 EXP DUP2 SLOAD DUP2 PUSH20 0xFFFFFFFFFFFFFFFFFFFFFFFFFFFFFFFFFFFFFFFF MUL NOT AND SWAP1 DUP4 PUSH20 0xFFFFFFFFFFFFFFFFFFFFFFFFFFFFFFFFFFFFFFFF AND MUL OR SWAP1 SSTORE POP SWAP2 PUSH1 0x20 ADD SWAP2 SWAP1 PUSH1 0x1 ADD SWAP1 PUSH2 0x633 JUMP JUMPDEST JUMPDEST POP SWAP1 POP PUSH2 0x699 SWAP2 SWAP1 PUSH2 0x69D JUMP JUMPDEST POP SWAP1 JUMP JUMPDEST JUMPDEST DUP1 DUP3 GT ISZERO PUSH2 0x6B6 JUMPI PUSH1 0x0 DUP2 PUSH1 0x0 SWAP1 SSTORE POP PUSH1 0x1 ADD PUSH2 0x69E JUMP JUMPDEST POP SWAP1 JUMP JUMPDEST PUSH1 0x0 DUP1 REVERT JUMPDEST PUSH1 0x0 PUSH20 0xFFFFFFFFFFFFFFFFFFFFFFFFFFFFFFFFFFFFFFFF DUP3 AND SWAP1 POP SWAP2 SWAP1 POP JUMP JUMPDEST PUSH1 0x0 PUSH2 0x6EA DUP3 PUSH2 0x6BF JUMP JUMPDEST SWAP1 POP SWAP2 SWAP1 POP JUMP JUMPDEST PUSH2 0x6FA DUP2 PUSH2 0x6DF JUMP JUMPDEST DUP2 EQ PUSH2 0x705 JUMPI PUSH1 0x0 DUP1 REVERT JUMPDEST POP JUMP JUMPDEST PUSH1 0x0 DUP2 CALLDATALOAD SWAP1 POP PUSH2 0x717 DUP2 PUSH2 0x6F1 JUMP JUMPDEST SWAP3 SWAP2 POP POP JUMP JUMPDEST PUSH1 0x0 PUSH1 0x20 DUP3 DUP5 SUB SLT ISZERO PUSH2 0x733 JUMPI PUSH2 0x732 PUSH2 0x6BA JUMP JUMPDEST JUMPDEST PUSH1 0x0 PUSH2 0x741 DUP5 DUP3 DUP6 ADD PUSH2 0x708 JUMP JUMPDEST SWAP2 POP POP SWAP3 SWAP2 POP POP JUMP JUMPDEST PUSH1 0x0 DUP2 SWAP1 POP SWAP2 SWAP1 POP JUMP JUMPDEST PUSH2 0x75D DUP2 PUSH2 0x74A JUMP JUMPDEST DUP3 MSTORE POP POP JUMP JUMPDEST PUSH1 0x0 PUSH1 0x20 DUP3 ADD SWAP1 POP PUSH2 0x778 PUSH1 0x0 DUP4 ADD DUP5 PUSH2 0x754 JUMP JUMPDEST SWAP3 SWAP2 POP POP JUMP JUMPDEST PUSH2 0x787 DUP2 PUSH2 0x6DF JUMP JUMPDEST DUP3 MSTORE POP POP JUMP JUMPDEST PUSH1 0x0 PUSH1 0x20 DUP3 ADD SWAP1 POP PUSH2 0x7A2 PUSH1 0x0 DUP4 ADD DUP5 PUSH2 0x77E JUMP JUMPDEST SWAP3 SWAP2 POP POP JUMP JUMPDEST PUSH2 0x7B1 DUP2 PUSH2 0x74A JUMP JUMPDEST DUP2 EQ PUSH2 0x7BC JUMPI PUSH1 0x0 DUP1 REVERT JUMPDEST POP JUMP JUMPDEST PUSH1 0x0 DUP2 CALLDATALOAD SWAP1 POP PUSH2 0x7CE DUP2 PUSH2 0x7A8 JUMP JUMPDEST SWAP3 SWAP2 POP POP JUMP JUMPDEST PUSH1 0x0 PUSH1 0x20 DUP3 DUP5 SUB SLT ISZERO PUSH2 0x7EA JUMPI PUSH2 0x7E9 PUSH2 0x6BA JUMP JUMPDEST JUMPDEST PUSH1 0x0 PUSH2 0x7F8 DUP5 DUP3 DUP6 ADD PUSH2 0x7BF JUMP JUMPDEST SWAP2 POP POP SWAP3 SWAP2 POP POP JUMP JUMPDEST PUSH1 0x0 DUP3 DUP3 MSTORE PUSH1 0x20 DUP3 ADD SWAP1 POP SWAP3 SWAP2 POP POP JUMP JUMPDEST PUSH32 0x53656E646572206973206E6F7420746865204F776E6572000000000000000000 PUSH1 0x0 DUP3 ADD MSTORE POP JUMP JUMPDEST PUSH1 0x0 PUSH2 0x848 PUSH1 0x17 DUP4 PUSH2 0x801 JUMP JUMPDEST SWAP2 POP PUSH2 0x853 DUP3 PUSH2 0x812 JUMP JUMPDEST PUSH1 0x20 DUP3 ADD SWAP1 POP SWAP2 SWAP1 POP JUMP JUMPDEST PUSH1 0x0 PUSH1 0x20 DUP3 ADD SWAP1 POP DUP2 DUP2 SUB PUSH1 0x0 DUP4 ADD MSTORE PUSH2 0x877 DUP2 PUSH2 0x83B JUMP JUMPDEST SWAP1 POP SWAP2 SWAP1 POP JUMP JUMPDEST PUSH32 0x4E487B7100000000000000000000000000000000000000000000000000000000 PUSH1 0x0 MSTORE PUSH1 0x32 PUSH1 0x4 MSTORE PUSH1 0x24 PUSH1 0x0 REVERT JUMPDEST PUSH32 0x4E487B7100000000000000000000000000000000000000000000000000000000 PUSH1 0x0 MSTORE PUSH1 0x11 PUSH1 0x4 MSTORE PUSH1 0x24 PUSH1 0x0 REVERT JUMPDEST PUSH1 0x0 PUSH2 0x8E7 DUP3 PUSH2 0x74A JUMP JUMPDEST SWAP2 POP PUSH32 0xFFFFFFFFFFFFFFFFFFFFFFFFFFFFFFFFFFFFFFFFFFFFFFFFFFFFFFFFFFFFFFFF DUP3 EQ ISZERO PUSH2 0x91A JUMPI PUSH2 0x919 PUSH2 0x8AD JUMP JUMPDEST JUMPDEST PUSH1 0x1 DUP3 ADD SWAP1 POP SWAP2 SWAP1 POP JUMP JUMPDEST PUSH32 0x4E487B7100000000000000000000000000000000000000000000000000000000 PUSH1 0x0 MSTORE PUSH1 0x41 PUSH1 0x4 MSTORE PUSH1 0x24 PUSH1 0x0 REVERT JUMPDEST PUSH1 0x0 DUP2 SWAP1 POP SWAP3 SWAP2 POP POP JUMP JUMPDEST POP JUMP JUMPDEST PUSH1 0x0 PUSH2 0x96F PUSH1 0x0 DUP4 PUSH2 0x954 JUMP JUMPDEST SWAP2 POP PUSH2 0x97A DUP3 PUSH2 0x95F JUMP JUMPDEST PUSH1 0x0 DUP3 ADD SWAP1 POP SWAP2 SWAP1 POP JUMP JUMPDEST PUSH1 0x0 PUSH2 0x990 DUP3 PUSH2 0x962 JUMP JUMPDEST SWAP2 POP DUP2 SWAP1 POP SWAP2 SWAP1 POP JUMP JUMPDEST PUSH32 0x43616C6C206661696C6564000000000000000000000000000000000000000000 PUSH1 0x0 DUP3 ADD MSTORE POP JUMP JUMPDEST PUSH1 0x0 PUSH2 0x9D0 PUSH1 0xB DUP4 PUSH2 0x801 JUMP JUMPDEST SWAP2 POP PUSH2 0x9DB DUP3 PUSH2 0x99A JUMP JUMPDEST PUSH1 0x20 DUP3 ADD SWAP1 POP SWAP2 SWAP1 POP JUMP JUMPDEST PUSH1 0x0 PUSH1 0x20 DUP3 ADD SWAP1 POP DUP2 DUP2 SUB PUSH1 0x0 DUP4 ADD MSTORE PUSH2 0x9FF DUP2 PUSH2 0x9C3 JUMP JUMPDEST SWAP1 POP SWAP2 SWAP1 POP JUMP JUMPDEST PUSH32 0x596F75206E65656420746F207370656E64206D6F726520455448210000000000 PUSH1 0x0 DUP3 ADD MSTORE POP JUMP JUMPDEST PUSH1 0x0 PUSH2 0xA3C PUSH1 0x1B DUP4 PUSH2 0x801 JUMP JUMPDEST SWAP2 POP PUSH2 0xA47 DUP3 PUSH2 0xA06 JUMP JUMPDEST PUSH1 0x20 DUP3 ADD SWAP1 POP SWAP2 SWAP1 POP JUMP JUMPDEST PUSH1 0x0 PUSH1 0x20 DUP3 ADD SWAP1 POP DUP2 DUP2 SUB PUSH1 0x0 DUP4 ADD MSTORE PUSH2 0xA6B DUP2 PUSH2 0xA2F JUMP JUMPDEST SWAP1 POP SWAP2 SWAP1 POP JUMP JUMPDEST PUSH1 0x0 PUSH2 0xA7D DUP3 PUSH2 0x74A JUMP JUMPDEST SWAP2 POP PUSH2 0xA88 DUP4 PUSH2 0x74A JUMP JUMPDEST SWAP3 POP DUP3 PUSH32 0xFFFFFFFFFFFFFFFFFFFFFFFFFFFFFFFFFFFFFFFFFFFFFFFFFFFFFFFFFFFFFFFF SUB DUP3 GT ISZERO PUSH2 0xABD JUMPI PUSH2 0xABC PUSH2 0x8AD JUMP JUMPDEST JUMPDEST DUP3 DUP3 ADD SWAP1 POP SWAP3 SWAP2 POP POP JUMP JUMPDEST PUSH1 0x0 PUSH2 0xAD3 DUP3 PUSH2 0x74A JUMP JUMPDEST SWAP2 POP PUSH2 0xADE DUP4 PUSH2 0x74A JUMP JUMPDEST SWAP3 POP DUP2 PUSH32 0xFFFFFFFFFFFFFFFFFFFFFFFFFFFFFFFFFFFFFFFFFFFFFFFFFFFFFFFFFFFFFFFF DIV DUP4 GT DUP3 ISZERO ISZERO AND ISZERO PUSH2 0xB17 JUMPI PUSH2 0xB16 PUSH2 0x8AD JUMP JUMPDEST JUMPDEST DUP3 DUP3 MUL SWAP1 POP SWAP3 SWAP2 POP POP JUMP JUMPDEST PUSH32 0x4E487B7100000000000000000000000000000000000000000000000000000000 PUSH1 0x0 MSTORE PUSH1 0x12 PUSH1 0x4 MSTORE PUSH1 0x24 PUSH1 0x0 REVERT JUMPDEST PUSH1 0x0 PUSH2 0xB5C DUP3 PUSH2 0x74A JUMP JUMPDEST SWAP2 POP PUSH2 0xB67 DUP4 PUSH2 0x74A JUMP JUMPDEST SWAP3 POP DUP3 PUSH2 0xB77 JUMPI PUSH2 0xB76 PUSH2 0xB22 JUMP JUMPDEST JUMPDEST DUP3 DUP3 DIV SWAP1 POP SWAP3 SWAP2 POP POP JUMP JUMPDEST PUSH1 0x0 PUSH10 0xFFFFFFFFFFFFFFFFFFFF DUP3 AND SWAP1 POP SWAP2 SWAP1 POP JUMP JUMPDEST PUSH2 0xBA1 DUP2 PUSH2 0xB82 JUMP JUMPDEST DUP2 EQ PUSH2 0xBAC JUMPI PUSH1 0x0 DUP1 REVERT JUMPDEST POP JUMP JUMPDEST PUSH1 0x0 DUP2 MLOAD SWAP1 POP PUSH2 0xBBE DUP2 PUSH2 0xB98 JUMP JUMPDEST SWAP3 SWAP2 POP POP JUMP JUMPDEST PUSH1 0x0 DUP2 SWAP1 POP SWAP2 SWAP1 POP JUMP JUMPDEST PUSH2 0xBD7 DUP2 PUSH2 0xBC4 JUMP JUMPDEST DUP2 EQ PUSH2 0xBE2 JUMPI PUSH1 0x0 DUP1 REVERT JUMPDEST POP JUMP JUMPDEST PUSH1 0x0 DUP2 MLOAD SWAP1 POP PUSH2 0xBF4 DUP2 PUSH2 0xBCE JUMP JUMPDEST SWAP3 SWAP2 POP POP JUMP JUMPDEST PUSH1 0x0 DUP2 MLOAD SWAP1 POP PUSH2 0xC09 DUP2 PUSH2 0x7A8 JUMP JUMPDEST SWAP3 SWAP2 POP POP JUMP JUMPDEST PUSH1 0x0 DUP1 PUSH1 0x0 DUP1 PUSH1 0x0 PUSH1 0xA0 DUP7 DUP9 SUB SLT ISZERO PUSH2 0xC2B JUMPI PUSH2 0xC2A PUSH2 0x6BA JUMP JUMPDEST JUMPDEST PUSH1 0x0 PUSH2 0xC39 DUP9 DUP3 DUP10 ADD PUSH2 0xBAF JUMP JUMPDEST SWAP6 POP POP PUSH1 0x20 PUSH2 0xC4A DUP9 DUP3 DUP10 ADD PUSH2 0xBE5 JUMP JUMPDEST SWAP5 POP POP PUSH1 0x40 PUSH2 0xC5B DUP9 DUP3 DUP10 ADD PUSH2 0xBFA JUMP JUMPDEST SWAP4 POP POP PUSH1 0x60 PUSH2 0xC6C DUP9 DUP3 DUP10 ADD PUSH2 0xBFA JUMP JUMPDEST SWAP3 POP POP PUSH1 0x80 PUSH2 0xC7D DUP9 DUP3 DUP10 ADD PUSH2 0xBAF JUMP JUMPDEST SWAP2 POP POP SWAP3 SWAP6 POP SWAP3 SWAP6 SWAP1 SWAP4 POP JUMP JUMPDEST PUSH1 0x0 PUSH2 0xC95 DUP3 PUSH2 0xBC4 JUMP JUMPDEST SWAP2 POP PUSH2 0xCA0 DUP4 PUSH2 0xBC4 JUMP JUMPDEST SWAP3 POP DUP3 PUSH32 0x7FFFFFFFFFFFFFFFFFFFFFFFFFFFFFFFFFFFFFFFFFFFFFFFFFFFFFFFFFFFFFFF DIV DUP3 GT PUSH1 0x0 DUP5 SGT PUSH1 0x0 DUP5 SGT AND AND ISZERO PUSH2 0xCDF JUMPI PUSH2 0xCDE PUSH2 0x8AD JUMP JUMPDEST JUMPDEST DUP2 PUSH32 0x8000000000000000000000000000000000000000000000000000000000000000 SDIV DUP4 SLT PUSH1 0x0 DUP5 SLT PUSH1 0x0 DUP5 SGT AND AND ISZERO PUSH2 0xD1C JUMPI PUSH2 0xD1B PUSH2 0x8AD JUMP JUMPDEST JUMPDEST DUP3 PUSH32 0x8000000000000000000000000000000000000000000000000000000000000000 SDIV DUP3 SLT PUSH1 0x0 DUP5 SGT PUSH1 0x0 DUP5 SLT AND AND ISZERO PUSH2 0xD59 JUMPI PUSH2 0xD58 PUSH2 0x8AD JUMP JUMPDEST JUMPDEST DUP3 PUSH32 0x7FFFFFFFFFFFFFFFFFFFFFFFFFFFFFFFFFFFFFFFFFFFFFFFFFFFFFFFFFFFFFFF SDIV DUP3 SLT PUSH1 0x0 DUP5 SLT PUSH1 0x0 DUP5 SLT AND AND ISZERO PUSH2 0xD96 JUMPI PUSH2 0xD95 PUSH2 0x8AD JUMP JUMPDEST JUMPDEST DUP3 DUP3 MUL SWAP1 POP SWAP3 SWAP2 POP POP JUMP INVALID LOG2 PUSH5 0x6970667358 0x22 SLT KECCAK256 0xD LT SWAP10 0xA5 0xC6 SWAP6 0xCE EQ KECCAK256 PUSH18 0xED94C25579BF81C78A9DF3E11F2D34465328 0xCF 0xD7 SWAP4 PUSH14 0x64736F6C63430008080033000000 "
				},
				"gasEstimates": {
					"creation": {
						"codeDepositCost": "708600",
						"executionCost": "25007",
						"totalCost": "733607"
					},
					"external": {
						"MINIMUM_USD()": "351",
						"addressToAmountFunded(address)": "2814",
						"fund()": "infinite",
						"funders(uint256)": "5044",
						"owner()": "2558",
						"withdraw()": "infinite"
					}
				},
				"methodIdentifiers": {
					"MINIMUM_USD()": "6b69a592",
					"addressToAmountFunded(address)": "3e47d6f3",
					"fund()": "b60d4288",
					"funders(uint256)": "dc0d3dff",
					"owner()": "8da5cb5b",
					"withdraw()": "3ccfd60b"
				}
			},
			"storageLayout": {
				"storage": [
					{
						"astId": 55,
						"contract": "contracts/FundMe.sol:FundMe",
						"label": "addressToAmountFunded",
						"offset": 0,
						"slot": "0",
						"type": "t_mapping(t_address,t_uint256)"
					},
					{
						"astId": 58,
						"contract": "contracts/FundMe.sol:FundMe",
						"label": "funders",
						"offset": 0,
						"slot": "1",
						"type": "t_array(t_address)dyn_storage"
					},
					{
						"astId": 60,
						"contract": "contracts/FundMe.sol:FundMe",
						"label": "owner",
						"offset": 0,
						"slot": "2",
						"type": "t_address"
					}
				],
				"types": {
					"t_address": {
						"encoding": "inplace",
						"label": "address",
						"numberOfBytes": "20"
					},
					"t_array(t_address)dyn_storage": {
						"base": "t_address",
						"encoding": "dynamic_array",
						"label": "address[]",
						"numberOfBytes": "32"
					},
					"t_mapping(t_address,t_uint256)": {
						"encoding": "mapping",
						"key": "t_address",
						"label": "mapping(address => uint256)",
						"numberOfBytes": "32",
						"value": "t_uint256"
					},
					"t_uint256": {
						"encoding": "inplace",
						"label": "uint256",
						"numberOfBytes": "32"
					}
				}
			},
			"userdoc": {
				"kind": "user",
				"methods": {},
				"version": 1
			}
		}
	}
}